{"abi":[{"type":"constructor","inputs":[{"name":"_actorRegistry","type":"address","internalType":"address"}],"stateMutability":"nonpayable"},{"type":"function","name":"actorRegistry","inputs":[],"outputs":[{"name":"","type":"address","internalType":"contract ActorRegistry"}],"stateMutability":"view"},{"type":"function","name":"admin","inputs":[],"outputs":[{"name":"","type":"address","internalType":"address"}],"stateMutability":"view"},{"type":"function","name":"createProduct","inputs":[{"name":"_name","type":"string","internalType":"string"},{"name":"_description","type":"string","internalType":"string"},{"name":"_sector","type":"string","internalType":"string"},{"name":"_requiresColdChain","type":"bool","internalType":"bool"},{"name":"_minTemp","type":"int256","internalType":"int256"},{"name":"_maxTemp","type":"int256","internalType":"int256"}],"outputs":[{"name":"productId","type":"uint256","internalType":"uint256"}],"stateMutability":"nonpayable"},{"type":"function","name":"deactivateProduct","inputs":[{"name":"_id","type":"uint256","internalType":"uint256"}],"outputs":[],"stateMutability":"nonpayable"},{"type":"function","name":"getMyProducts","inputs":[],"outputs":[{"name":"result","type":"tuple[]","internalType":"struct ProductRegistry.Product[]","components":[{"name":"id","type":"uint256","internalType":"uint256"},{"name":"owner","type":"address","internalType":"address"},{"name":"name","type":"string","internalType":"string"},{"name":"description","type":"string","internalType":"string"},{"name":"sector","type":"string","internalType":"string"},{"name":"requiresColdChain","type":"bool","internalType":"bool"},{"name":"minTemp","type":"int256","internalType":"int256"},{"name":"maxTemp","type":"int256","internalType":"int256"},{"name":"active","type":"bool","internalType":"bool"},{"name":"createdAt","type":"uint256","internalType":"uint256"}]}],"stateMutability":"view"},{"type":"function","name":"getOwnerProducts","inputs":[{"name":"_owner","type":"address","internalType":"address"}],"outputs":[{"name":"","type":"uint256[]","internalType":"uint256[]"}],"stateMutability":"view"},{"type":"function","name":"getProduct","inputs":[{"name":"_id","type":"uint256","internalType":"uint256"}],"outputs":[{"name":"","type":"tuple","internalType":"struct ProductRegistry.Product","components":[{"name":"id","type":"uint256","internalType":"uint256"},{"name":"owner","type":"address","internalType":"address"},{"name":"name","type":"string","internalType":"string"},{"name":"description","type":"string","internalType":"string"},{"name":"sector","type":"string","internalType":"string"},{"name":"requiresColdChain","type":"bool","internalType":"bool"},{"name":"minTemp","type":"int256","internalType":"int256"},{"name":"maxTemp","type":"int256","internalType":"int256"},{"name":"active","type":"bool","internalType":"bool"},{"name":"createdAt","type":"uint256","internalType":"uint256"}]}],"stateMutability":"view"},{"type":"function","name":"getProductsPaginated","inputs":[{"name":"_offset","type":"uint256","internalType":"uint256"},{"name":"_limit","type":"uint256","internalType":"uint256"}],"outputs":[{"name":"result","type":"tuple[]","internalType":"struct ProductRegistry.Product[]","components":[{"name":"id","type":"uint256","internalType":"uint256"},{"name":"owner","type":"address","internalType":"address"},{"name":"name","type":"string","internalType":"string"},{"name":"description","type":"string","internalType":"string"},{"name":"sector","type":"string","internalType":"string"},{"name":"requiresColdChain","type":"bool","internalType":"bool"},{"name":"minTemp","type":"int256","internalType":"int256"},{"name":"maxTemp","type":"int256","internalType":"int256"},{"name":"active","type":"bool","internalType":"bool"},{"name":"createdAt","type":"uint256","internalType":"uint256"}]}],"stateMutability":"view"},{"type":"function","name":"getTotalProducts","inputs":[],"outputs":[{"name":"","type":"uint256","internalType":"uint256"}],"stateMutability":"view"},{"type":"function","name":"nextProductId","inputs":[],"outputs":[{"name":"","type":"uint256","internalType":"uint256"}],"stateMutability":"view"},{"type":"function","name":"products","inputs":[{"name":"","type":"uint256","internalType":"uint256"}],"outputs":[{"name":"id","type":"uint256","internalType":"uint256"},{"name":"owner","type":"address","internalType":"address"},{"name":"name","type":"string","internalType":"string"},{"name":"description","type":"string","internalType":"string"},{"name":"sector","type":"string","internalType":"string"},{"name":"requiresColdChain","type":"bool","internalType":"bool"},{"name":"minTemp","type":"int256","internalType":"int256"},{"name":"maxTemp","type":"int256","internalType":"int256"},{"name":"active","type":"bool","internalType":"bool"},{"name":"createdAt","type":"uint256","internalType":"uint256"}],"stateMutability":"view"},{"type":"function","name":"updateProduct","inputs":[{"name":"_id","type":"uint256","internalType":"uint256"},{"name":"_name","type":"string","internalType":"string"},{"name":"_description","type":"string","internalType":"string"},{"name":"_sector","type":"string","internalType":"string"},{"name":"_requiresColdChain","type":"bool","internalType":"bool"},{"name":"_minTemp","type":"int256","internalType":"int256"},{"name":"_maxTemp","type":"int256","internalType":"int256"}],"outputs":[],"stateMutability":"nonpayable"},{"type":"event","name":"ProductCreated","inputs":[{"name":"productId","type":"uint256","indexed":true,"internalType":"uint256"},{"name":"owner","type":"address","indexed":true,"internalType":"address"},{"name":"name","type":"string","indexed":false,"internalType":"string"},{"name":"sector","type":"string","indexed":false,"internalType":"string"}],"anonymous":false},{"type":"event","name":"ProductDeactivated","inputs":[{"name":"productId","type":"uint256","indexed":true,"internalType":"uint256"}],"anonymous":false},{"type":"event","name":"ProductUpdated","inputs":[{"name":"productId","type":"uint256","indexed":true,"internalType":"uint256"},{"name":"owner","type":"address","indexed":true,"internalType":"address"}],"anonymous":false}],"bytecode":{"object":"0x60803461007f57601f61179238819003918201601f19168301916001600160401b038311848410176100845780849260209460405283398101031261007f57516001600160a01b0381169081900361007f5760018060a01b031933816000541617600055600154161760015560016002556040516116f7908161009b8239f35b600080fd5b634e487b7160e01b600052604160045260246000fdfe6080604052600436101561001257600080fd5b60003560e01c80631c38264c14610f515780631d4f0d5c14610e99578063263182ce146107cd5780634de91a63146107af578063570aea8a146107915780637acc0b20146106ac5780638b13612314610297578063b9db15b414610235578063eae7b9351461020c578063f851a440146101e3578063fd77e5de146101375763fdca4ca3146100a057600080fd5b3461013257600036600319011261013257336000526020600481526040600020908154906100cd82611564565b9260005b8381106100ea57604051806100e68782611054565b0390f35b806100f861012d9284611378565b9054600391821b1c600052845261011260406000206114b2565b61011c82886115c1565b5261012781876115c1565b506112b9565b6100d1565b600080fd5b346101325760203660031901126101325760043580600052600360205261016460406000205415156113b1565b60008181526003602052604090206001015461019590336001600160a01b03918216149081156101d5575b50611409565b806000526003602052600860406000200160ff1981541690557f241c84b17626110b8c42e26f8f7de483066e7f266953509e01046f09e6fdd6cc600080a2005b90506000541633148361018f565b34610132576000366003190112610132576000546040516001600160a01b039091168152602090f35b34610132576000366003190112610132576001546040516001600160a01b039091168152602090f35b3461013257602036600319011261013257600435610251611464565b5080600052600360205261026b60406000205415156113b1565b60005260036020526100e661028360406000206114b2565b604051918291602083526020830190610fbf565b346101325760e0366003190112610132576001600160401b03602435818111610132576102c89036906004016110b6565b90604435838111610132576102e19036906004016110b6565b606494919435828111610132576102fc9036906004016110b6565b909560843594851515860361013257600435978860005260039260209584875261032c60406000205415156113b1565b8a60005284875260018060a01b039361035a60019580876040600020015416331490811561069e5750611409565b8b60005285885260ff600860406000200154161561064e578961037e8c1515611200565b61063a575b8b60005285885260406000209a89811161054c578060028d01926103b1826103ab86546110e3565b86611324565b600090601f83116001146105d9576000926105ce575b505060001982891b1c191690861b1790555b848a019188821161054c5781906103f4826103ab86546110e3565b600090601f831160011461056d57600092610562575b505060001982871b1c191690841b1790555b6004880195841161054c5761043b8461043588546110e3565b88611324565b600090601f85116001146104e357849550908492916000956104d8575b50501b92600019911b1c19161790555b61048181600584019060ff801983541691151516179055565b80156104d15760a4355b6006830155156104c757600760c435915b015533907f4a12324fe7b696e5fb46abf17d655678dcc9f4be1e8bde1fe56c1c99b997070e600080a3005b600760009161049c565b600061048b565b013593508980610458565b91949284601f1981168860005285600020956000905b898383106105325750505010610518575b50505050811b019055610468565b60f885600019921b161c199101351690558680808061050a565b8787013589559097019694850194889350908101906104f9565b634e487b7160e01b600052604160045260246000fd5b013590508c8061040a565b869350601f19831691856000528a6000209260005b8c8282106105b857505084116105a0575b505050811b01905561041c565b013560001983891b60f8161c191690558c8080610593565b8385013586558a97909501949283019201610582565b013590508e806103c7565b60008581528c81208a95509290601f198516908e5b828210610623575050841161060b575b505050811b0190556103d9565b0135600019838b1b60f8161c191690558e80806105fe565b8385013586558c979095019492830192018e6105ee565b61064960c43560a43512611256565b610383565b60405162461bcd60e51b815260048101899052602260248201527f50726f6475637452656769737472793a2050726f647563746f20696e61637469604482015261766f60f01b6064820152608490fd5b90506000541633148e61018f565b34610132576020366003190112610132576004356000908152600360205260409020805460018201546001600160a01b0316916106eb6002820161115a565b6106f76003830161115a565b916107046004820161115a565b9260ff6005830154169361076d60068401549161075f600786015494610751600960ff60088a015416980154986040519c8d9c8d5260208d015260408c61014091829101528c0190610f7f565b908a820360608c0152610f7f565b9088820360808a0152610f7f565b94151560a087015260c086015260e085015215156101008401526101208301520390f35b34610132576000366003190112610132576020600554604051908152f35b34610132576000366003190112610132576020600254604051908152f35b346101325760c0366003190112610132576004356001600160401b038111610132576107fd9036906004016110b6565b906024356001600160401b0381116101325761081d9036906004016110b6565b90916044356001600160401b0381116101325761083e9036906004016110b6565b909260643515156064350361013257600180546040516395a8c58d60e01b81523360048201526024810192909252602090829060449082906001600160a01b03165afa908115610e8d57600091610e52575b5015610de7576108a1861515611200565b8115610d9857606435610d84575b600254946108bc866112b9565b60025560643515610d7d576084355b60643515610d725761090860a435925b604051946108e88661111d565b8986523360208701526108fc368c8a6112de565b604087015236916112de565b60608401526109183685886112de565b6080840152606435151560a084015260c083015260e0820152600161010082015242610120820152846000526003602052604060002090805182556001820160018060a01b036020830151166bffffffffffffffffffffffff60a01b82541617905560408101518051906001600160401b03821161054c5781906109ac826109a360028801546110e3565b60028801611324565b602090601f8311600114610d0057600092610cf5575b50508160011b916000199060031b1c19161760028301555b60608101518051906001600160401b03821161054c578190610a0c82610a0360038801546110e3565b60038801611324565b602090601f8311600114610c8357600092610c78575b50508160011b916000199060031b1c19161760038301555b60808101518051906001600160401b03821161054c57610a6a82610a6160048701546110e3565b60048701611324565b602090601f8311600114610c025791806009949261012094600092610bf7575b50508160011b916000199060031b1c19161760048501555b610ac160a08201511515600586019060ff801983541691151516179055565b60c0810151600685015560e08101516007850155610af56101008201511515600886019060ff801983541691151516179055565b015191015533600052600460205260406000209182549268010000000000000000938481101561054c57610b2e91600182018155611378565b81549060031b9087821b91600019901b19161790556005549283101561054c576001830180600555831015610be157602095610bd67f5b6548625353cfbb6de6bbb313a0b1cf8efbb45f2874f24c9d352590e3e366ff9387809660056000527f036b6384b5eca791c62761152d0c79bb0604c104a5fb6f4eb0703f3154bb3db00155610bc7604051948594604086526040860191611390565b908382038a8501523397611390565b0390a3604051908152f35b634e487b7160e01b600052603260045260246000fd5b015190508b80610a8a565b906004850160005260206000209160005b601f1985168110610c60575092600994926001926101209583601f19811610610c47575b505050811b016004850155610aa2565b015160001960f88460031b161c191690558b8080610c37565b91926020600181928685015181550194019201610c13565b015190508980610a22565b9250600385016000526020600020906000935b601f1984168510610cda576001945083601f19811610610cc1575b505050811b016003830155610a3a565b015160001960f88460031b161c19169055898080610cb1565b81810151835560209485019460019093019290910190610c96565b0151905089806109c2565b9250600285016000526020600020906000935b601f1984168510610d57576001945083601f19811610610d3e575b505050811b0160028301556109da565b015160001960f88460031b161c19169055898080610d2e565b81810151835560209485019460019093019290910190610d13565b6109086000926108db565b60006108cb565b610d9360a43560843512611256565b6108af565b60405162461bcd60e51b815260206004820152602160248201527f50726f6475637452656769737472793a20536563746f722072657175657269646044820152606f60f81b6064820152608490fd5b60405162461bcd60e51b815260206004820152603b60248201527f50726f6475637452656769737472793a20536f6c6f2072656d6974656e74657360448201527f2070756564656e2067657374696f6e61722070726f647563746f7300000000006064820152608490fd5b90506020813d602011610e85575b81610e6d60209383611139565b81010312610132575180151581036101325787610890565b3d9150610e60565b6040513d6000823e3d90fd5b3461013257602080600319360112610132576004356001600160a01b038116908190036101325760005260048152604060002060405190818382549182815201908192600052846000209060005b86828210610f3d578686610efd82880383611139565b604051928392818401908285525180915260408401929160005b828110610f2657505050500390f35b835185528695509381019392810192600101610f17565b835485529093019260019283019201610ee7565b34610132576040366003190112610132576100e6610f736024356004356115d5565b60405191829182611054565b919082519283825260005b848110610fab575050826000602080949584010152601f8019910116010190565b602081830181015184830182015201610f8a565b908151815260018060a01b036020830151166020820152611019611007610ff56040850151610140806040870152850190610f7f565b60608501518482036060860152610f7f565b60808401518382036080850152610f7f565b9160a0810151151560a083015260c081015160c083015260e081015160e0830152610100808201511515908301526101208091015191015290565b602080820190808352835180925260408301928160408460051b8301019501936000915b8483106110885750505050505090565b90919293949584806110a6600193603f198682030187528a51610fbf565b9801930193019194939290611078565b9181601f84011215610132578235916001600160401b038311610132576020838186019501011161013257565b90600182811c92168015611113575b60208310146110fd57565b634e487b7160e01b600052602260045260246000fd5b91607f16916110f2565b61014081019081106001600160401b0382111761054c57604052565b90601f801991011681019081106001600160401b0382111761054c57604052565b906040519182600082549261116e846110e3565b9081845260019485811690816000146111dd575060011461119a575b505061119892500383611139565b565b9093915060005260209081600020936000915b8183106111c55750506111989350820101388061118a565b855488840185015294850194879450918301916111ad565b91505061119894506020925060ff191682840152151560051b820101388061118a565b1561120757565b60405162461bcd60e51b815260206004820152602160248201527f50726f6475637452656769737472793a204e6f6d6272652072657175657269646044820152606f60f81b6064820152608490fd5b1561125d57565b60405162461bcd60e51b815260206004820152602e60248201527f50726f6475637452656769737472793a2052616e676f2064652074656d70657260448201526d617475726120696e76616c69646f60901b6064820152608490fd5b60001981146112c85760010190565b634e487b7160e01b600052601160045260246000fd5b9291926001600160401b03821161054c5760405191611307601f8201601f191660200184611139565b829481845281830111610132578281602093846000960137010152565b90601f811161133257505050565b600091825260208220906020601f850160051c8301941061136e575b601f0160051c01915b82811061136357505050565b818155600101611357565b909250829061134e565b8054821015610be15760005260206000200190600090565b908060209392818452848401376000828201840152601f01601f1916010190565b156113b857565b60405162461bcd60e51b815260206004820152602360248201527f50726f6475637452656769737472793a2050726f647563746f206e6f2065786960448201526273746560e81b6064820152608490fd5b1561141057565b60405162461bcd60e51b815260206004820152602660248201527f50726f6475637452656769737472793a20536f6c6f20656c206475656e6f206f6044820152651030b236b4b760d11b6064820152608490fd5b604051906114718261111d565b8161012060009182815282602082015260606040820152606080820152606060808201528260a08201528260c08201528260e0820152826101008201520152565b906040516114bf8161111d565b8254815260018301546001600160a01b03166020820152918290610120906009906114ec6002820161115a565b60408501526114fd6003820161115a565b606085015261150e6004820161115a565b608085015260ff600582015416151560a0850152600681015460c0850152600781015460e085015260ff60088201541615156101008501520154910152565b6001600160401b03811161054c5760051b60200190565b9061156e8261154d565b61157b6040519182611139565b828152809261158c601f199161154d565b019060005b82811061159d57505050565b6020906115a8611464565b82828501015201611591565b919082039182116112c857565b8051821015610be15760209160051b010190565b60055492918382101561169a5781018082116112c857838111611693575b61160561160083836115b4565b611564565b93825b8281106116155750505050565b8181101561167e57806101276040611679937f036b6384b5eca791c62761152d0c79bb0604c104a5fb6f4eb0703f3154bb3db00154600090815260036020522061166861166288856115b4565b916114b2565b611672828b6115c1565b52886115c1565b611608565b60246000634e487b7160e01b81526032600452fd5b50826115f3565b50509050604051602081018181106001600160401b0382111761054c57604052600081529056fea264697066735822122020ccbdc8aae8c73150c86cad40a6b02cb26e7509a9fea8ffe4b9414e54b737d564736f6c63430008130033","linkReferences":{}},"methodIdentifiers":{"actorRegistry()":"eae7b935","admin()":"f851a440","createProduct(string,string,string,bool,int256,int256)":"263182ce","deactivateProduct(uint256)":"fd77e5de","getMyProducts()":"fdca4ca3","getOwnerProducts(address)":"1d4f0d5c","getProduct(uint256)":"b9db15b4","getProductsPaginated(uint256,uint256)":"1c38264c","getTotalProducts()":"570aea8a","nextProductId()":"4de91a63","products(uint256)":"7acc0b20","updateProduct(uint256,string,string,string,bool,int256,int256)":"8b136123"},"id":21}