{"abi":[{"type":"constructor","inputs":[{"name":"_actorRegistry","type":"address","internalType":"address"},{"name":"_shipmentManager","type":"address","internalType":"address"},{"name":"_checkpointTracker","type":"address","internalType":"address"},{"name":"_incidentManager","type":"address","internalType":"address"}],"stateMutability":"nonpayable"},{"type":"function","name":"VERSION","inputs":[],"outputs":[{"name":"","type":"string","internalType":"string"}],"stateMutability":"view"},{"type":"function","name":"actorRegistry","inputs":[],"outputs":[{"name":"","type":"address","internalType":"contract ActorRegistry"}],"stateMutability":"view"},{"type":"function","name":"admin","inputs":[],"outputs":[{"name":"","type":"address","internalType":"address"}],"stateMutability":"view"},{"type":"function","name":"cancelShipment","inputs":[{"name":"_shipmentId","type":"uint256","internalType":"uint256"},{"name":"_reason","type":"string","internalType":"string"}],"outputs":[],"stateMutability":"nonpayable"},{"type":"function","name":"checkTemperatureCompliance","inputs":[{"name":"_shipmentId","type":"uint256","internalType":"uint256"}],"outputs":[{"name":"compliant","type":"bool","internalType":"bool"},{"name":"totalChecked","type":"uint256","internalType":"uint256"},{"name":"violationsCount","type":"uint256","internalType":"uint256"}],"stateMutability":"view"},{"type":"function","name":"checkpointTracker","inputs":[],"outputs":[{"name":"","type":"address","internalType":"contract CheckpointTracker"}],"stateMutability":"view"},{"type":"function","name":"confirmDelivery","inputs":[{"name":"_shipmentId","type":"uint256","internalType":"uint256"}],"outputs":[],"stateMutability":"nonpayable"},{"type":"function","name":"createShipment","inputs":[{"name":"_recipient","type":"address","internalType":"address"},{"name":"_product","type":"string","internalType":"string"},{"name":"_origin","type":"string","internalType":"string"},{"name":"_destination","type":"string","internalType":"string"},{"name":"_requiresColdChain","type":"bool","internalType":"bool"},{"name":"_minTemp","type":"int256","internalType":"int256"},{"name":"_maxTemp","type":"int256","internalType":"int256"}],"outputs":[{"name":"","type":"uint256","internalType":"uint256"}],"stateMutability":"nonpayable"},{"type":"function","name":"deactivateActor","inputs":[{"name":"_actorAddress","type":"address","internalType":"address"}],"outputs":[],"stateMutability":"nonpayable"},{"type":"function","name":"deployedAt","inputs":[],"outputs":[{"name":"","type":"uint256","internalType":"uint256"}],"stateMutability":"view"},{"type":"function","name":"getActor","inputs":[{"name":"_actorAddress","type":"address","internalType":"address"}],"outputs":[{"name":"","type":"tuple","internalType":"struct ActorRegistry.Actor","components":[{"name":"actorAddress","type":"address","internalType":"address"},{"name":"name","type":"string","internalType":"string"},{"name":"role","type":"uint8","internalType":"enum ActorRegistry.ActorRole"},{"name":"location","type":"string","internalType":"string"},{"name":"isActive","type":"bool","internalType":"bool"},{"name":"registeredAt","type":"uint256","internalType":"uint256"}]}],"stateMutability":"view"},{"type":"function","name":"getActorShipments","inputs":[{"name":"_actor","type":"address","internalType":"address"}],"outputs":[{"name":"","type":"uint256[]","internalType":"uint256[]"}],"stateMutability":"view"},{"type":"function","name":"getCheckpoint","inputs":[{"name":"_checkpointId","type":"uint256","internalType":"uint256"}],"outputs":[{"name":"","type":"tuple","internalType":"struct CheckpointTracker.Checkpoint","components":[{"name":"id","type":"uint256","internalType":"uint256"},{"name":"shipmentId","type":"uint256","internalType":"uint256"},{"name":"actor","type":"address","internalType":"address"},{"name":"location","type":"string","internalType":"string"},{"name":"checkpointType","type":"string","internalType":"string"},{"name":"timestamp","type":"uint256","internalType":"uint256"},{"name":"notes","type":"string","internalType":"string"},{"name":"temperature","type":"int256","internalType":"int256"},{"name":"tempViolation","type":"bool","internalType":"bool"},{"name":"dataHash","type":"bytes32","internalType":"bytes32"}]}],"stateMutability":"view"},{"type":"function","name":"getFullShipmentTracking","inputs":[{"name":"_shipmentId","type":"uint256","internalType":"uint256"}],"outputs":[{"name":"shipment","type":"tuple","internalType":"struct ShipmentManager.Shipment","components":[{"name":"id","type":"uint256","internalType":"uint256"},{"name":"sender","type":"address","internalType":"address"},{"name":"recipient","type":"address","internalType":"address"},{"name":"product","type":"string","internalType":"string"},{"name":"origin","type":"string","internalType":"string"},{"name":"destination","type":"string","internalType":"string"},{"name":"dateCreated","type":"uint256","internalType":"uint256"},{"name":"dateDelivered","type":"uint256","internalType":"uint256"},{"name":"status","type":"uint8","internalType":"enum ShipmentManager.ShipmentStatus"},{"name":"checkpointIds","type":"uint256[]","internalType":"uint256[]"},{"name":"incidentIds","type":"uint256[]","internalType":"uint256[]"},{"name":"requiresColdChain","type":"bool","internalType":"bool"},{"name":"minTemp","type":"int256","internalType":"int256"},{"name":"maxTemp","type":"int256","internalType":"int256"},{"name":"isCancelled","type":"bool","internalType":"bool"}]},{"name":"cps","type":"tuple[]","internalType":"struct CheckpointTracker.Checkpoint[]","components":[{"name":"id","type":"uint256","internalType":"uint256"},{"name":"shipmentId","type":"uint256","internalType":"uint256"},{"name":"actor","type":"address","internalType":"address"},{"name":"location","type":"string","internalType":"string"},{"name":"checkpointType","type":"string","internalType":"string"},{"name":"timestamp","type":"uint256","internalType":"uint256"},{"name":"notes","type":"string","internalType":"string"},{"name":"temperature","type":"int256","internalType":"int256"},{"name":"tempViolation","type":"bool","internalType":"bool"},{"name":"dataHash","type":"bytes32","internalType":"bytes32"}]},{"name":"incs","type":"tuple[]","internalType":"struct IncidentManager.Incident[]","components":[{"name":"id","type":"uint256","internalType":"uint256"},{"name":"shipmentId","type":"uint256","internalType":"uint256"},{"name":"incidentType","type":"uint8","internalType":"enum IncidentManager.IncidentType"},{"name":"severity","type":"uint8","internalType":"enum IncidentManager.IncidentSeverity"},{"name":"reporter","type":"address","internalType":"address"},{"name":"description","type":"string","internalType":"string"},{"name":"timestamp","type":"uint256","internalType":"uint256"},{"name":"resolved","type":"bool","internalType":"bool"},{"name":"resolvedBy","type":"address","internalType":"address"},{"name":"resolvedAt","type":"uint256","internalType":"uint256"},{"name":"resolution","type":"string","internalType":"string"},{"name":"requiresInspection","type":"bool","internalType":"bool"}]},{"name":"coldChainOk","type":"bool","internalType":"bool"},{"name":"cpCount","type":"uint256","internalType":"uint256"},{"name":"tempViolations","type":"uint256","internalType":"uint256"}],"stateMutability":"view"},{"type":"function","name":"getIncident","inputs":[{"name":"_incidentId","type":"uint256","internalType":"uint256"}],"outputs":[{"name":"","type":"tuple","internalType":"struct IncidentManager.Incident","components":[{"name":"id","type":"uint256","internalType":"uint256"},{"name":"shipmentId","type":"uint256","internalType":"uint256"},{"name":"incidentType","type":"uint8","internalType":"enum IncidentManager.IncidentType"},{"name":"severity","type":"uint8","internalType":"enum IncidentManager.IncidentSeverity"},{"name":"reporter","type":"address","internalType":"address"},{"name":"description","type":"string","internalType":"string"},{"name":"timestamp","type":"uint256","internalType":"uint256"},{"name":"resolved","type":"bool","internalType":"bool"},{"name":"resolvedBy","type":"address","internalType":"address"},{"name":"resolvedAt","type":"uint256","internalType":"uint256"},{"name":"resolution","type":"string","internalType":"string"},{"name":"requiresInspection","type":"bool","internalType":"bool"}]}],"stateMutability":"view"},{"type":"function","name":"getLatestCheckpoint","inputs":[{"name":"_shipmentId","type":"uint256","internalType":"uint256"}],"outputs":[{"name":"","type":"tuple","internalType":"struct CheckpointTracker.Checkpoint","components":[{"name":"id","type":"uint256","internalType":"uint256"},{"name":"shipmentId","type":"uint256","internalType":"uint256"},{"name":"actor","type":"address","internalType":"address"},{"name":"location","type":"string","internalType":"string"},{"name":"checkpointType","type":"string","internalType":"string"},{"name":"timestamp","type":"uint256","internalType":"uint256"},{"name":"notes","type":"string","internalType":"string"},{"name":"temperature","type":"int256","internalType":"int256"},{"name":"tempViolation","type":"bool","internalType":"bool"},{"name":"dataHash","type":"bytes32","internalType":"bytes32"}]}],"stateMutability":"view"},{"type":"function","name":"getOpenIncidents","inputs":[{"name":"_shipmentId","type":"uint256","internalType":"uint256"}],"outputs":[{"name":"","type":"tuple[]","internalType":"struct IncidentManager.Incident[]","components":[{"name":"id","type":"uint256","internalType":"uint256"},{"name":"shipmentId","type":"uint256","internalType":"uint256"},{"name":"incidentType","type":"uint8","internalType":"enum IncidentManager.IncidentType"},{"name":"severity","type":"uint8","internalType":"enum IncidentManager.IncidentSeverity"},{"name":"reporter","type":"address","internalType":"address"},{"name":"description","type":"string","internalType":"string"},{"name":"timestamp","type":"uint256","internalType":"uint256"},{"name":"resolved","type":"bool","internalType":"bool"},{"name":"resolvedBy","type":"address","internalType":"address"},{"name":"resolvedAt","type":"uint256","internalType":"uint256"},{"name":"resolution","type":"string","internalType":"string"},{"name":"requiresInspection","type":"bool","internalType":"bool"}]}],"stateMutability":"view"},{"type":"function","name":"getShipment","inputs":[{"name":"_shipmentId","type":"uint256","internalType":"uint256"}],"outputs":[{"name":"","type":"tuple","internalType":"struct ShipmentManager.Shipment","components":[{"name":"id","type":"uint256","internalType":"uint256"},{"name":"sender","type":"address","internalType":"address"},{"name":"recipient","type":"address","internalType":"address"},{"name":"product","type":"string","internalType":"string"},{"name":"origin","type":"string","internalType":"string"},{"name":"destination","type":"string","internalType":"string"},{"name":"dateCreated","type":"uint256","internalType":"uint256"},{"name":"dateDelivered","type":"uint256","internalType":"uint256"},{"name":"status","type":"uint8","internalType":"enum ShipmentManager.ShipmentStatus"},{"name":"checkpointIds","type":"uint256[]","internalType":"uint256[]"},{"name":"incidentIds","type":"uint256[]","internalType":"uint256[]"},{"name":"requiresColdChain","type":"bool","internalType":"bool"},{"name":"minTemp","type":"int256","internalType":"int256"},{"name":"maxTemp","type":"int256","internalType":"int256"},{"name":"isCancelled","type":"bool","internalType":"bool"}]}],"stateMutability":"view"},{"type":"function","name":"getShipmentCheckpoints","inputs":[{"name":"_shipmentId","type":"uint256","internalType":"uint256"}],"outputs":[{"name":"","type":"tuple[]","internalType":"struct CheckpointTracker.Checkpoint[]","components":[{"name":"id","type":"uint256","internalType":"uint256"},{"name":"shipmentId","type":"uint256","internalType":"uint256"},{"name":"actor","type":"address","internalType":"address"},{"name":"location","type":"string","internalType":"string"},{"name":"checkpointType","type":"string","internalType":"string"},{"name":"timestamp","type":"uint256","internalType":"uint256"},{"name":"notes","type":"string","internalType":"string"},{"name":"temperature","type":"int256","internalType":"int256"},{"name":"tempViolation","type":"bool","internalType":"bool"},{"name":"dataHash","type":"bytes32","internalType":"bytes32"}]}],"stateMutability":"view"},{"type":"function","name":"getShipmentIncidents","inputs":[{"name":"_shipmentId","type":"uint256","internalType":"uint256"}],"outputs":[{"name":"","type":"tuple[]","internalType":"struct IncidentManager.Incident[]","components":[{"name":"id","type":"uint256","internalType":"uint256"},{"name":"shipmentId","type":"uint256","internalType":"uint256"},{"name":"incidentType","type":"uint8","internalType":"enum IncidentManager.IncidentType"},{"name":"severity","type":"uint8","internalType":"enum IncidentManager.IncidentSeverity"},{"name":"reporter","type":"address","internalType":"address"},{"name":"description","type":"string","internalType":"string"},{"name":"timestamp","type":"uint256","internalType":"uint256"},{"name":"resolved","type":"bool","internalType":"bool"},{"name":"resolvedBy","type":"address","internalType":"address"},{"name":"resolvedAt","type":"uint256","internalType":"uint256"},{"name":"resolution","type":"string","internalType":"string"},{"name":"requiresInspection","type":"bool","internalType":"bool"}]}],"stateMutability":"view"},{"type":"function","name":"getSystemStats","inputs":[],"outputs":[{"name":"totalShipments","type":"uint256","internalType":"uint256"},{"name":"totalCheckpoints","type":"uint256","internalType":"uint256"},{"name":"totalIncidents","type":"uint256","internalType":"uint256"},{"name":"totalActors","type":"uint256","internalType":"uint256"},{"name":"version","type":"string","internalType":"string"}],"stateMutability":"view"},{"type":"function","name":"getTotalShipments","inputs":[],"outputs":[{"name":"","type":"uint256","internalType":"uint256"}],"stateMutability":"view"},{"type":"function","name":"hasOpenIncidents","inputs":[{"name":"_shipmentId","type":"uint256","internalType":"uint256"}],"outputs":[{"name":"","type":"bool","internalType":"bool"}],"stateMutability":"view"},{"type":"function","name":"incidentManager","inputs":[],"outputs":[{"name":"","type":"address","internalType":"contract IncidentManager"}],"stateMutability":"view"},{"type":"function","name":"initiateReturn","inputs":[{"name":"_shipmentId","type":"uint256","internalType":"uint256"},{"name":"_reason","type":"string","internalType":"string"}],"outputs":[],"stateMutability":"nonpayable"},{"type":"function","name":"isActiveActor","inputs":[{"name":"_actorAddress","type":"address","internalType":"address"}],"outputs":[{"name":"","type":"bool","internalType":"bool"}],"stateMutability":"view"},{"type":"function","name":"recordCheckpoint","inputs":[{"name":"_shipmentId","type":"uint256","internalType":"uint256"},{"name":"_location","type":"string","internalType":"string"},{"name":"_checkpointType","type":"string","internalType":"string"},{"name":"_notes","type":"string","internalType":"string"},{"name":"_temperature","type":"int256","internalType":"int256"}],"outputs":[{"name":"","type":"uint256","internalType":"uint256"}],"stateMutability":"nonpayable"},{"type":"function","name":"registerActor","inputs":[{"name":"_name","type":"string","internalType":"string"},{"name":"_role","type":"uint8","internalType":"enum ActorRegistry.ActorRole"},{"name":"_location","type":"string","internalType":"string"}],"outputs":[],"stateMutability":"nonpayable"},{"type":"function","name":"registerActorFor","inputs":[{"name":"_actorAddress","type":"address","internalType":"address"},{"name":"_name","type":"string","internalType":"string"},{"name":"_role","type":"uint8","internalType":"enum ActorRegistry.ActorRole"},{"name":"_location","type":"string","internalType":"string"}],"outputs":[],"stateMutability":"nonpayable"},{"type":"function","name":"reportIncident","inputs":[{"name":"_shipmentId","type":"uint256","internalType":"uint256"},{"name":"_incidentType","type":"uint8","internalType":"enum IncidentManager.IncidentType"},{"name":"_severity","type":"uint8","internalType":"enum IncidentManager.IncidentSeverity"},{"name":"_description","type":"string","internalType":"string"}],"outputs":[{"name":"","type":"uint256","internalType":"uint256"}],"stateMutability":"nonpayable"},{"type":"function","name":"resolveIncident","inputs":[{"name":"_incidentId","type":"uint256","internalType":"uint256"},{"name":"_resolution","type":"string","internalType":"string"}],"outputs":[],"stateMutability":"nonpayable"},{"type":"function","name":"shipmentManager","inputs":[],"outputs":[{"name":"","type":"address","internalType":"contract ShipmentManager"}],"stateMutability":"view"},{"type":"function","name":"transferAdmin","inputs":[{"name":"_newAdmin","type":"address","internalType":"address"}],"outputs":[],"stateMutability":"nonpayable"},{"type":"function","name":"updateShipmentStatus","inputs":[{"name":"_shipmentId","type":"uint256","internalType":"uint256"},{"name":"_newStatus","type":"uint8","internalType":"enum ShipmentManager.ShipmentStatus"}],"outputs":[],"stateMutability":"nonpayable"},{"type":"event","name":"AdminTransferred","inputs":[{"name":"oldAdmin","type":"address","indexed":true,"internalType":"address"},{"name":"newAdmin","type":"address","indexed":true,"internalType":"address"},{"name":"timestamp","type":"uint256","indexed":false,"internalType":"uint256"}],"anonymous":false},{"type":"event","name":"SystemInitialized","inputs":[{"name":"actorRegistry","type":"address","indexed":false,"internalType":"address"},{"name":"shipmentManager","type":"address","indexed":false,"internalType":"address"},{"name":"checkpointTracker","type":"address","indexed":false,"internalType":"address"},{"name":"incidentManager","type":"address","indexed":false,"internalType":"address"},{"name":"timestamp","type":"uint256","indexed":false,"internalType":"uint256"}],"anonymous":false}],"bytecode":{"object":"0x6080346200011857601f6200244f38819003918201601f19168301916001600160401b038311848410176200011d57808492608094604052833981010312620001185760a081620000717faa394722d0dfa1433d57d51019750452dc4cc547c3ce4e0d68a41231bfcb3cdc9362000133565b6200007f6020830162000133565b916200009c6060620000946040840162000133565b920162000133565b90600180861b0319923384600454161760045542600555600180871b03808080931696878760005416176000551692838660015416176001551692838560025416176002551680936003541617600355604051938452602084015260408301526060820152426080820152a16040516123069081620001498239f35b600080fd5b634e487b7160e01b600052604160045260246000fd5b51906001600160a01b0382168203620001185756fe6040608081526004908136101561001557600080fd5b600091823560e01c908163092b3740146116ad578163201a3bf71461168457816320fc48811461161657816321afe04e1461151c578382632643ce33146114c65750816333401ee1146113d35781634138d167146112155781635561df6e146111bd578382635e6b208614611167575081635f19f4f5146110e4578163600135cc14610efc57816372f2f93a14610e29578163733e28aa14610dc457816375829def14610cfd57816378ba358c14610cd4578382637defa92014610c65575081638139a20514610bd157816382bb907614610b2c578163850df29f14610a97578163885301b214610a4c5781638e661851146109b25781639578615e146108ba5781639ab21a1b146107965781639bca76e51461069a578382639d9ee23914610640578263c4edcf8b1461056a57508163d1ce59a7146103625783908263e703002314610339578263eae4c19f1461031a578263eae7b935146102f2578263f851a440146102c6578263fc43669514610256578263fd84cb97146101db57505063ffa1ad74146101a457600080fd5b346101d757816003193601126101d7576101d3906101c0611c06565b905191829160208352602083019061175b565b0390f35b5080fd5b91509134610252576020366003190112610252576001546001600160a01b031691823b1561024d578392602484928451958693849263fd84cb9760e01b84528035908401525af190811561024457506102315750f35b61023a90611b4d565b6102415780f35b80fd5b513d84823e3d90fd5b505050fd5b5050fd5b9150913461025257602036600319011261025257610272611956565b82546001600160a01b039061028a9082163314611c58565b80855416803b156102c2578592836024928651978895869463fc43669560e01b865216908401525af190811561024457506102315750f35b8580fd5b8390346102ee57826003193601126102ee575490516001600160a01b03909116815260209150f35b8280fd5b5082346101d757816003193601126101d757905490516001600160a01b039091168152602090f35b5082346101d757816003193601126101d7576020906005549051908152f35b5082346101d757816003193601126101d75760035490516001600160a01b039091168152602090f35b90508234610241578060031936011261024157600154835163442980d960e11b81526020946001600160a01b039491939192869085908590829089165afa93841561055f57829461052f575b5084868495966002541683519586809263114f622960e11b82525afa9384156105235783946104f4575b5060001984019384116104e15790818786936003541683519485809263636617b960e01b82525afa9283156104d75790889185946104a6575b5084541682519687809263bfa9eb2560e01b82525afa92831561049b5792610465575b6101d39450610441611c06565b9381519788978852870152850152606084015260a0608084015260a083019061175b565b91508584813d8311610494575b61047c8183611be5565b8101031261048f576101d3935191610434565b600080fd5b503d610472565b9051903d90823e3d90fd5b8281939295503d83116104d0575b6104be8183611be5565b8101031261048f578790519289610411565b503d6104b4565b82513d86823e3d90fd5b634e487b7160e01b835260118552602483fd5b9093508681813d831161051c575b61050c8183611be5565b8101031261048f575192876103d8565b503d610502565b505051903d90823e3d90fd5b9293508583813d8311610558575b6105478183611be5565b8101031261048f57839251936103ae565b503d61053d565b5051903d90823e3d90fd5b809184346102525760031960603682011261024d576001600160401b039083358281116102c25761059e903690860161196c565b91909460243593600685101561063c5760443590811161063c576105c5903690830161196c565b88546001600160a01b031693909290843b1561063857899660609488946106259361061761060c8d519e8f9c8d9b8c9a63c4edcf8b60e01b8c528b015260648a0191611c37565b9460248801906119cc565b858403016044860152611c37565b03925af190811561024457506102315750f35b8980fd5b8780fd5b809184346102525761065136611999565b60015491949290916001600160a01b031690813b1561069657868094610625875198899687958694639d9ee23960e01b86528501528960248501526044840191611c37565b8680fd5b8383346101d75760803660031901126101d75760243560078110156102ee576044359380851015610792576064356001600160401b03811161078e576020928561072e97936106ef61073f943690830161196c565b949060018060a01b03600354169589519b8c9889978896639bca76e560e01b885280359088015261071f81611780565b60248701526044860190611a35565b608060648501526084840191611c37565b03925af191821561049b579161075a575b6020925051908152f35b90506020823d8211610786575b8161077460209383611be5565b8101031261048f576020915190610750565b3d9150610767565b8480fd5b8380fd5b8383346101d75760031960e0368201126102ee576107b2611956565b6001600160401b03906024358281116102c2576107d2903690880161196c565b93909260443581811161063c576107ec9036908a0161196c565b9290916064359081116108b6576108069036908b0161196c565b9092608435948515158096036108b2576001548a51639ab21a1b60e01b81526001600160a01b039889169d81019d909d5260e060248e0152909616978b978897916108569160e48a019190611c37565b908488830301604489015261086a92611c37565b9185830301606486015261087d92611c37565b90608483015260a43560a483015260c43560c48301520381855a94602095f191821561049b579161075a576020925051908152f35b8a80fd5b8880fd5b8383346101d75760203660031901126101d7578161016082516108dc81611b91565b8281528260208201528284820152826060820152826080820152606060a08201528260c08201528260e08201528261010082015282610120820152606061014082015201528160018060a01b0360035416936024835180968193634abc30af60e11b83528035908301525afa91821561049b57809261096b575b8151602080825281906101d390820186611a42565b9091503d8082853e61097d8185611be5565b8301926020818503126101d7578051916001600160401b0383116102415750926109ab916101d3940161214a565b9083610956565b919050346102ee5760203660031901126102ee576002548151638e66185160e01b8152833593810193909352606090839060249082906001600160a01b03165afa9081156102445783606094938193610a18575b50815193151584526020840152820152f35b91935050610a3c9150833d8111610a45575b610a348183611be5565b810190612128565b91929038610a06565b503d610a2a565b8383346101d757816003193601126101d757600154815163442980d960e11b81529360209185919082906001600160a01b03165afa91821561049b579161075a576020925051908152f35b919050346102ee5760203660031901126102ee57600354815163850df29f60e01b81528335938101939093528390839060249082906001600160a01b03165afa918215610b2257836101d39493610afd575b505051918291602083526020830190611af8565b610b1a9293503d8091833e610b128183611be5565b81019061223b565b903880610ae9565b81513d85823e3d90fd5b8383346101d757602092836003193601126102ee5783610b4a611956565b8454845163415dc83b60e11b81526001600160a01b039283169481019490945283916024918391165afa928315610bc6578093610b8c575b5050519015158152f35b909192508382813d8311610bbf575b610ba58183611be5565b810103126102415750610bb790611d0c565b908380610b82565b503d610b9b565b8251903d90823e3d90fd5b919050346102ee5760203660031901126102ee57610bed611f52565b506002548151638139a20560e01b81528335938101939093528390839060249082906001600160a01b03165afa918215610b2257836101d39493610c40575b5050519182916020835260208301906118c3565b610c5d9293503d8091833e610c558183611be5565b81019061206e565b903880610c2c565b8091843461025257806003193601126102525760243591600783101561024d576001546001600160a01b031692833b1561078e576044859283855196879485936303ef7d4960e51b8552803590850152610cbe81611780565b60248401525af190811561024457506102315750f35b5050346101d757816003193601126101d75760015490516001600160a01b039091168152602090f35b919050346102ee5760203660031901126102ee57610d19611956565b8254906001600160a01b0380831691610d33338414611c58565b16928315610d7657907f38df5fa0f7fef0d515ca1f5388cb5790ac5885d5fca8d05d9f943e563c33a4b36020859351428152a36001600160a01b03191617905580f35b5162461bcd60e51b81526020818601526024808201527f4c6f67697374696373547261636b65723a20446972656363696f6e20696e76616044820152636c69646160e01b6064820152608490fd5b919050346102ee5760203660031901126102ee57600354815163399f145560e11b81528335938101939093528390839060249082906001600160a01b03165afa918215610b2257836101d39493610afd57505051918291602083526020830190611af8565b839150346101d757602092836003193601126102ee57610e47611956565b938360018060a01b03602460019782895416865197889485936339797c9d60e11b855216908301525afa9283156104d7578493610ebb575b5092908094929451938080860192818752875180945286019601925b828110610ea85785870386f35b8351875295810195928101928401610e9b565b9092503d8085833e610ecd8183611be5565b810190838183031261078e578051906001600160401b0382116102c257610ef5929101611d9f565b9185610e7f565b9050823461024157602036600319011261024157602490823590610f1e611d19565b5060018060a01b03948186600154168251958680926224acdd60e61b8252878a8301525afa93841561055f5782946110c0575b50856002541692815195635f19f4f560e01b875281818801528387602481885afa968715611088578497611095575b50836024959697986003541684519687809263399f145560e11b825286868301525afa948515611088578495611064575b5090602460609284519788938492638e66185160e01b84528301525afa92831561055f57610fff9683958495611030575b509061100d839261101a9451998a9960c08b5260c08b01906117d4565b9089820360208b01526119d9565b9187830390880152611af8565b9215156060850152608084015260a08301520390f35b61100d965061105591955061101a9392945060603d8111610a4557610a348183611be5565b94919690949591929350610fe2565b60609291955061107f6024913d8088833e610b128183611be5565b95919250610fb1565b50505051903d90823e3d90fd5b6024959697506110b785913d8084833e6110af8183611be5565b810190612093565b97969550610f80565b6110dd9194503d8084833e6110d58183611be5565b810190611dfd565b9286610f51565b919050346102ee5760203660031901126102ee576002548151635f19f4f560e01b81528335938101939093528390839060249082906001600160a01b03165afa918215610b2257836101d3949361114a575b5050519182916020835260208301906119d9565b61115f9293503d8091833e6110af8183611be5565b903880611136565b809184346102525761117836611999565b60035491949290916001600160a01b031690813b1561069657868094610625875198899687958694632f35904360e11b86528501528960248501526044840191611c37565b8383346101d757602092836003193601126102ee576003548251632ab0efb760e11b81528235928101929092528490829060249082906001600160a01b03165afa928315610bc6578093610b8c575050519015158152f35b9050346102ee57602091826003193601126107925760249293611236611956565b908083519261124484611b76565b8184528160a0606095868b82015282888201528680820152826080820152015260018060a01b039687918284541687519889948593634138d16760e01b855216908301525afa9384156113c7578194611301575b5050816112ea916112d66112c960a09551988998818a52885116818a015287015160c0858a015260e089019061175b565b92860151828801906119cc565b840151858203601f1901608087015261175b565b916080810151151582850152015160c08301520390f35b909193503d8083833e6113148183611be5565b810186828203126102ee5781516001600160401b039283821161078e57019160c0838303126107925784519361134985611b76565b61135284611ca4565b8552888401518281116101d7578361136b918601611cb8565b898601528584015160068110156101d75786860152868401519182116102415750826113a26112ea959360a0979593889401611cb8565b878401526113b260808201611d0c565b60808401520151848201529391819350611298565b508251903d90823e3d90fd5b8383346101d75760031960a0368201126102ee576001600160401b039360243585811161078e57611407903690830161196c565b91909560443581811161069657611421903690840161196c565b94909160643590811161063c5761143b903690850161196c565b9092600160a01b60019003600254169688519a8b9788976333401ee160e01b89528035908901526024880160a0905260a488019061147892611c37565b908487830301604488015261148c92611c37565b9184830301606485015261149f92611c37565b60843560848301520381855a94602095f191821561049b579161075a576020925051908152f35b80918434610252576114d736611999565b60015491949290916001600160a01b031690813b1561069657868094610625875198899687958694632643ce3360e01b86528501528960248501526044840191611c37565b919050346102ee5782600319926080843601126101d75761153b611956565b936001600160401b0360243581811161078e5761155b903690850161196c565b966044359260068410156106965760643590811161069657611580903690870161196c565b86546001600160a01b0395919061159a9087163314611c58565b8589541696873b156106385789958b519c8d9a8b998a986310d7f02760e11b8a521690880152602487016080905260848701906115d692611c37565b92604486016115e4916119cc565b8483030160648501526115f692611c37565b03925af1908115610244575061160a575080f35b61161390611b4d565b80f35b919050346102ee5760203660031901126102ee57611632611f52565b5060025481516320fc488160e01b81528335938101939093528390839060249082906001600160a01b03165afa918215610b2257836101d39493610c40575050519182916020835260208301906118c3565b5050346101d757816003193601126101d75760025490516001600160a01b039091168152602090f35b919050346102ee5760203660031901126102ee576116c9611d19565b5060015481516224acdd60e61b81528335938101939093528390839060249082906001600160a01b03165afa918215610b2257836101d3949361171b575b5050519182916020835260208301906117d4565b6117309293503d8091833e6110d58183611be5565b903880611707565b60005b83811061174b5750506000910152565b818101518382015260200161173b565b9060209161177481518092818552858086019101611738565b601f01601f1916010190565b6007111561178a57565b634e487b7160e01b600052602160045260246000fd5b90815180825260208080930193019160005b8281106117c0575050505090565b8351855293810193928101926001016117b2565b908151815260018060a01b03806020840151166020830152604083015116604082015261189061187c61184061182e61181c60608701516101e080606089015287019061175b565b6080870151868203608088015261175b565b60a086015185820360a087015261175b565b60c085015160c085015260e085015160e0850152610100808601519061186582611780565b8501526101208086015190858303908601526117a0565b6101408085015190848303908501526117a0565b916101608082015115159083015261018080820151908301526101a080820151908301526101c080910151151591015290565b90815181526020820151602082015260018060a01b036040830151166040820152611931611915611903606085015161014080606087015285019061175b565b6080850151848203608086015261175b565b60a084015160a084015260c084015183820360c085015261175b565b9160e081015160e0830152610100808201511515908301526101208091015191015290565b600435906001600160a01b038216820361048f57565b9181601f8401121561048f578235916001600160401b03831161048f576020838186019501011161048f57565b90604060031983011261048f5760043591602435906001600160401b03821161048f576119c89160040161196c565b9091565b90600682101561178a5752565b908082519081815260208091019281808460051b8301019501936000915b848310611a075750505050505090565b9091929394958480611a25600193601f198682030187528a516118c3565b98019301930191949392906119f7565b90600482101561178a5752565b9081518152602082015160208201526040820151611a5f81611780565b6040820152611a7660608301516060830190611a35565b611ae860018060a01b03806080850151166080840152611aa560a08501516101808060a087015285019061175b565b9060c085015160c085015260e0850151151560e085015261010090818601511690840152610120808501519084015261014080850151908483039085015261175b565b9161016080910151151591015290565b90815180825260208092019182818360051b82019501936000915b848310611b235750505050505090565b9091929394958480611b3d83856001950387528a51611a42565b9801930193019194939290611b13565b6001600160401b038111611b6057604052565b634e487b7160e01b600052604160045260246000fd5b60c081019081106001600160401b03821117611b6057604052565b61018081019081106001600160401b03821117611b6057604052565b6101e081019081106001600160401b03821117611b6057604052565b61014081019081106001600160401b03821117611b6057604052565b90601f801991011681019081106001600160401b03821117611b6057604052565b60405190604082018281106001600160401b03821117611b605760405260058252640312e322e360dc1b6020830152565b908060209392818452848401376000828201840152601f01601f1916010190565b15611c5f57565b60405162461bcd60e51b815260206004820152601c60248201527f4c6f67697374696373547261636b65723a20536f6c6f2061646d696e000000006044820152606490fd5b51906001600160a01b038216820361048f57565b81601f8201121561048f5780516001600160401b038111611b605760405192611ceb601f8301601f191660200185611be5565b8184526020828401011161048f57611d099160208085019101611738565b90565b5190811515820361048f57565b60405190611d2682611bad565b816101c0600091828152826020820152826040820152606080808301528060808301528060a08301528360c08301528360e083015283610100830152806101208301526101408201528261016082015282610180820152826101a08201520152565b6001600160401b038111611b605760051b60200190565b81601f8201121561048f57805191611db683611d88565b92611dc46040519485611be5565b808452602092838086019260051b82010192831161048f578301905b828210611dee575050505090565b81518152908301908301611de0565b9060208282031261048f5781516001600160401b039283821161048f5701906101e08282031261048f5760405192611e3484611bad565b82518452611e4460208401611ca4565b6020850152611e5560408401611ca4565b6040850152606083015181811161048f5782611e72918501611cb8565b6060850152608083015181811161048f5782611e8f918501611cb8565b608085015260a083015181811161048f5782611eac918501611cb8565b60a085015260c083015160c085015260e083015160e08501526101008084015190600782101561048f578501526101208084015182811161048f5783611ef3918601611d9f565b90850152610140918284015191821161048f57611f11918401611d9f565b90830152610160611f23818301611d0c565b9083015261018080820151908301526101a08082015190830152611f4b6101c0809201611d0c565b9082015290565b60405190611f5f82611bc9565b81610120600091828152826020820152826040820152606080820152606060808201528260a0820152606060c08201528260e0820152826101008201520152565b9190916101408184031261048f5760405190611fbb82611bc9565b81938151835260208201516020840152611fd760408301611ca4565b60408401526060820151906001600160401b039182811161048f5781611ffe918501611cb8565b6060850152608083015182811161048f578161201b918501611cb8565b608085015260a083015160a085015260c083015191821161048f57612041918301611cb8565b60c083015260e081015160e083015261010061205e818301611d0c565b9083015261012080910151910152565b9060208282031261048f5781516001600160401b03811161048f57611d099201611fa0565b90602090818382031261048f5782516001600160401b039384821161048f570181601f8201121561048f5780516120c981611d88565b946120d76040519687611be5565b818652848087019260051b8401019380851161048f57858401925b858410612103575050505050505090565b835183811161048f57879161211d848480948a0101611fa0565b8152019301926120f2565b9081606091031261048f5761213c81611d0c565b916040602083015192015190565b9190916101808184031261048f576040519061216582611b91565b819381518352602082015160208401526040820151600781101561048f5760408401526060820151600481101561048f5760608401526121a760808301611ca4565b608084015260a08201516001600160401b039081811161048f57826121cd918501611cb8565b60a085015260c083015160c08501526121e860e08401611d0c565b60e08501526101006121fb818501611ca4565b908501526101208084015190850152610140918284015191821161048f57612224918401611cb8565b90830152612236610160809201611d0c565b910152565b90602090818382031261048f5782516001600160401b039384821161048f570181601f8201121561048f57805161227181611d88565b9461227f6040519687611be5565b818652848087019260051b8401019380851161048f57858401925b8584106122ab575050505050505090565b835183811161048f5787916122c5848480948a010161214a565b81520193019261229a56fea2646970667358221220fd03b5046c4381182ec30eabcaabc08c27514a4a732ed92402ef9dbc971a61f164736f6c63430008130033","linkReferences":{}},"methodIdentifiers":{"VERSION()":"ffa1ad74","actorRegistry()":"eae7b935","admin()":"f851a440","cancelShipment(uint256,string)":"2643ce33","checkTemperatureCompliance(uint256)":"8e661851","checkpointTracker()":"201a3bf7","confirmDelivery(uint256)":"fd84cb97","createShipment(address,string,string,string,bool,int256,int256)":"9ab21a1b","deactivateActor(address)":"fc436695","deployedAt()":"eae4c19f","getActor(address)":"4138d167","getActorShipments(address)":"72f2f93a","getCheckpoint(uint256)":"20fc4881","getFullShipmentTracking(uint256)":"600135cc","getIncident(uint256)":"9578615e","getLatestCheckpoint(uint256)":"8139a205","getOpenIncidents(uint256)":"850df29f","getShipment(uint256)":"092b3740","getShipmentCheckpoints(uint256)":"5f19f4f5","getShipmentIncidents(uint256)":"733e28aa","getSystemStats()":"d1ce59a7","getTotalShipments()":"885301b2","hasOpenIncidents(uint256)":"5561df6e","incidentManager()":"e7030023","initiateReturn(uint256,string)":"9d9ee239","isActiveActor(address)":"82bb9076","recordCheckpoint(uint256,string,string,string,int256)":"33401ee1","registerActor(string,uint8,string)":"c4edcf8b","registerActorFor(address,string,uint8,string)":"21afe04e","reportIncident(uint256,uint8,uint8,string)":"9bca76e5","resolveIncident(uint256,string)":"5e6b2086","shipmentManager()":"78ba358c","transferAdmin(address)":"75829def","updateShipmentStatus(uint256,uint8)":"7defa920"},"id":20}