{"abi":[{"type":"constructor","inputs":[{"name":"_actorRegistry","type":"address","internalType":"address"},{"name":"_shipmentManager","type":"address","internalType":"address"}],"stateMutability":"nonpayable"},{"type":"function","name":"actorRegistry","inputs":[],"outputs":[{"name":"","type":"address","internalType":"contract ActorRegistry"}],"stateMutability":"view"},{"type":"function","name":"admin","inputs":[],"outputs":[{"name":"","type":"address","internalType":"address"}],"stateMutability":"view"},{"type":"function","name":"getIncident","inputs":[{"name":"_incidentId","type":"uint256","internalType":"uint256"}],"outputs":[{"name":"","type":"tuple","internalType":"struct IncidentManager.Incident","components":[{"name":"id","type":"uint256","internalType":"uint256"},{"name":"shipmentId","type":"uint256","internalType":"uint256"},{"name":"incidentType","type":"uint8","internalType":"enum IncidentManager.IncidentType"},{"name":"severity","type":"uint8","internalType":"enum IncidentManager.IncidentSeverity"},{"name":"reporter","type":"address","internalType":"address"},{"name":"description","type":"string","internalType":"string"},{"name":"timestamp","type":"uint256","internalType":"uint256"},{"name":"resolved","type":"bool","internalType":"bool"},{"name":"resolvedBy","type":"address","internalType":"address"},{"name":"resolvedAt","type":"uint256","internalType":"uint256"},{"name":"resolution","type":"string","internalType":"string"},{"name":"requiresInspection","type":"bool","internalType":"bool"}]}],"stateMutability":"view"},{"type":"function","name":"getOpenIncidents","inputs":[{"name":"_shipmentId","type":"uint256","internalType":"uint256"}],"outputs":[{"name":"result","type":"tuple[]","internalType":"struct IncidentManager.Incident[]","components":[{"name":"id","type":"uint256","internalType":"uint256"},{"name":"shipmentId","type":"uint256","internalType":"uint256"},{"name":"incidentType","type":"uint8","internalType":"enum IncidentManager.IncidentType"},{"name":"severity","type":"uint8","internalType":"enum IncidentManager.IncidentSeverity"},{"name":"reporter","type":"address","internalType":"address"},{"name":"description","type":"string","internalType":"string"},{"name":"timestamp","type":"uint256","internalType":"uint256"},{"name":"resolved","type":"bool","internalType":"bool"},{"name":"resolvedBy","type":"address","internalType":"address"},{"name":"resolvedAt","type":"uint256","internalType":"uint256"},{"name":"resolution","type":"string","internalType":"string"},{"name":"requiresInspection","type":"bool","internalType":"bool"}]}],"stateMutability":"view"},{"type":"function","name":"getReporterIncidents","inputs":[{"name":"_reporter","type":"address","internalType":"address"}],"outputs":[{"name":"","type":"uint256[]","internalType":"uint256[]"}],"stateMutability":"view"},{"type":"function","name":"getShipmentIncidents","inputs":[{"name":"_shipmentId","type":"uint256","internalType":"uint256"}],"outputs":[{"name":"result","type":"tuple[]","internalType":"struct IncidentManager.Incident[]","components":[{"name":"id","type":"uint256","internalType":"uint256"},{"name":"shipmentId","type":"uint256","internalType":"uint256"},{"name":"incidentType","type":"uint8","internalType":"enum IncidentManager.IncidentType"},{"name":"severity","type":"uint8","internalType":"enum IncidentManager.IncidentSeverity"},{"name":"reporter","type":"address","internalType":"address"},{"name":"description","type":"string","internalType":"string"},{"name":"timestamp","type":"uint256","internalType":"uint256"},{"name":"resolved","type":"bool","internalType":"bool"},{"name":"resolvedBy","type":"address","internalType":"address"},{"name":"resolvedAt","type":"uint256","internalType":"uint256"},{"name":"resolution","type":"string","internalType":"string"},{"name":"requiresInspection","type":"bool","internalType":"bool"}]}],"stateMutability":"view"},{"type":"function","name":"getTotalIncidents","inputs":[],"outputs":[{"name":"","type":"uint256","internalType":"uint256"}],"stateMutability":"view"},{"type":"function","name":"hasOpenIncidents","inputs":[{"name":"_shipmentId","type":"uint256","internalType":"uint256"}],"outputs":[{"name":"","type":"bool","internalType":"bool"}],"stateMutability":"view"},{"type":"function","name":"incidents","inputs":[{"name":"","type":"uint256","internalType":"uint256"}],"outputs":[{"name":"id","type":"uint256","internalType":"uint256"},{"name":"shipmentId","type":"uint256","internalType":"uint256"},{"name":"incidentType","type":"uint8","internalType":"enum IncidentManager.IncidentType"},{"name":"severity","type":"uint8","internalType":"enum IncidentManager.IncidentSeverity"},{"name":"reporter","type":"address","internalType":"address"},{"name":"description","type":"string","internalType":"string"},{"name":"timestamp","type":"uint256","internalType":"uint256"},{"name":"resolved","type":"bool","internalType":"bool"},{"name":"resolvedBy","type":"address","internalType":"address"},{"name":"resolvedAt","type":"uint256","internalType":"uint256"},{"name":"resolution","type":"string","internalType":"string"},{"name":"requiresInspection","type":"bool","internalType":"bool"}],"stateMutability":"view"},{"type":"function","name":"nextIncidentId","inputs":[],"outputs":[{"name":"","type":"uint256","internalType":"uint256"}],"stateMutability":"view"},{"type":"function","name":"openIncidentCount","inputs":[{"name":"","type":"uint256","internalType":"uint256"}],"outputs":[{"name":"","type":"uint256","internalType":"uint256"}],"stateMutability":"view"},{"type":"function","name":"reportIncident","inputs":[{"name":"_shipmentId","type":"uint256","internalType":"uint256"},{"name":"_incidentType","type":"uint8","internalType":"enum IncidentManager.IncidentType"},{"name":"_severity","type":"uint8","internalType":"enum IncidentManager.IncidentSeverity"},{"name":"_description","type":"string","internalType":"string"}],"outputs":[{"name":"","type":"uint256","internalType":"uint256"}],"stateMutability":"nonpayable"},{"type":"function","name":"resolveIncident","inputs":[{"name":"_incidentId","type":"uint256","internalType":"uint256"},{"name":"_resolution","type":"string","internalType":"string"}],"outputs":[],"stateMutability":"nonpayable"},{"type":"function","name":"shipmentManager","inputs":[],"outputs":[{"name":"","type":"address","internalType":"contract ShipmentManager"}],"stateMutability":"view"},{"type":"function","name":"updateSeverity","inputs":[{"name":"_incidentId","type":"uint256","internalType":"uint256"},{"name":"_newSeverity","type":"uint8","internalType":"enum IncidentManager.IncidentSeverity"}],"outputs":[],"stateMutability":"nonpayable"},{"type":"event","name":"CriticalIncidentAlert","inputs":[{"name":"incidentId","type":"uint256","indexed":true,"internalType":"uint256"},{"name":"shipmentId","type":"uint256","indexed":true,"internalType":"uint256"},{"name":"incidentType","type":"uint8","indexed":false,"internalType":"enum IncidentManager.IncidentType"},{"name":"reporter","type":"address","indexed":false,"internalType":"address"},{"name":"timestamp","type":"uint256","indexed":false,"internalType":"uint256"}],"anonymous":false},{"type":"event","name":"IncidentReported","inputs":[{"name":"incidentId","type":"uint256","indexed":true,"internalType":"uint256"},{"name":"shipmentId","type":"uint256","indexed":true,"internalType":"uint256"},{"name":"incidentType","type":"uint8","indexed":false,"internalType":"enum IncidentManager.IncidentType"},{"name":"severity","type":"uint8","indexed":false,"internalType":"enum IncidentManager.IncidentSeverity"},{"name":"reporter","type":"address","indexed":true,"internalType":"address"},{"name":"requiresInspection","type":"bool","indexed":false,"internalType":"bool"},{"name":"timestamp","type":"uint256","indexed":false,"internalType":"uint256"}],"anonymous":false},{"type":"event","name":"IncidentResolved","inputs":[{"name":"incidentId","type":"uint256","indexed":true,"internalType":"uint256"},{"name":"shipmentId","type":"uint256","indexed":true,"internalType":"uint256"},{"name":"resolvedBy","type":"address","indexed":true,"internalType":"address"},{"name":"resolution","type":"string","indexed":false,"internalType":"string"},{"name":"timestamp","type":"uint256","indexed":false,"internalType":"uint256"}],"anonymous":false},{"type":"event","name":"InspectionRequested","inputs":[{"name":"incidentId","type":"uint256","indexed":true,"internalType":"uint256"},{"name":"shipmentId","type":"uint256","indexed":true,"internalType":"uint256"},{"name":"timestamp","type":"uint256","indexed":false,"internalType":"uint256"}],"anonymous":false}],"bytecode":{"object":"0x608034620000a057601f62001fa838819003918201601f19168301916001600160401b03831184841017620000a5578084926040948552833981010312620000a0576200005a60206200005283620000bb565b9201620000bb565b90600160035560018060a01b0319913383600254161760025560018060a01b0380921683600054161760005516906001541617600155604051611ed79081620000d18239f35b600080fd5b634e487b7160e01b600052604160045260246000fd5b51906001600160a01b0382168203620000a05756fe608080604052600436101561001357600080fd5b60003560e01c9081630fd1966814611689575080635561df6e1461165b5780635e6b208614611219578063636617b9146111d8578063733e28aa1461109257806378ba358c146110695780637f78a4641461103d578063850df29f14610ee05780639578615e14610e765780639bca76e51461050d578063a6c6a8f314610416578063cd687ea9146101d3578063eae7b935146101aa578063efccd663146100f25763f851a440146100c457600080fd5b346100ed5760003660031901126100ed576002546040516001600160a01b039091168152602090f35b600080fd5b346100ed576020806003193601126100ed576004356001600160a01b038116908190036100ed5760005260068152604060002060405190818382549182815201908192600052846000209060005b86828210610196578686610156828803836118a0565b604051928392818401908285525180915260408401929160005b82811061017f57505050500390f35b835185528695509381019392810192600101610170565b835485529093019260019283019201610140565b346100ed5760003660031901126100ed576000546040516001600160a01b039091168152602090f35b346100ed5760403660031901126100ed5760043560249081359160048310156100ed578115158061040b575b61020890611c1c565b60008054604051634138d16760e01b81523360048201526001600160a01b039592909182908590829089165afa9081156103ff576000916103dc575b50846002541633149081156103af575b501561036b5782600052600460205260ff6005604060002001541661031757600390836000526004602052610290816002604060002001611b3f565b1461029757005b8160005260046020526102ad6040600020611d2b565b92602084015193604081015192600784101561030357509060807f255a50f73a5c6025713448051b3d0b2125ec19193d5a08b93f27c0180bc25b4f93920151166102fe604051928392429184611bf6565b0390a3005b634e487b7160e01b60009081526021600452fd5b60405162461bcd60e51b8152602060048201526027818401527f496e636964656e744d616e616765723a20496e636964656e6369612079612072604482015266657375656c746160c81b6064820152608490fd5b60405162461bcd60e51b815260206004820152601c818401527f496e636964656e744d616e616765723a2053696e207065726d69736f000000006044820152606490fd5b60409150015160068110156103c75760051485610254565b82634e487b7160e01b60005260216004526000fd5b6103f991503d806000833e6103f181836118a0565b810190611c78565b85610244565b6040513d6000823e3d90fd5b5060035482106101ff565b346100ed5760203660031901126100ed576004356000526004602052604060002080546001820154916105006002820154610453600384016118c1565b926004810154916005820154906006830154916104d160ff6008610479600788016118c1565b96015416976040519a8b9a8b5260208b015261049b60408b0160ff86166116d1565b6104ae60608b0160ff8660081c166116de565b60018060a01b03809460101c1660808b01526101808060a08c01528a019061170e565b9460c089015260ff8116151560e089015260081c1661010087015261012086015284820361014086015261170e565b9015156101608301520390f35b346100ed5760803660031901126100ed57600760243510156100ed57600460443510156100ed576064356001600160401b0381116100ed576105539036906004016116a4565b60005460405163415dc83b60e11b815233600482015291929190602090829060249082906001600160a01b03165afa80156103ff57600090610e3b575b61059a9150611974565b600435151580610dc7575b6105ae906119d8565b8115610d73576001546040516224acdd60e61b8152600480359082015290600090829060249082906001600160a01b03165afa80156103ff57600090610bd7575b6101c091500151610b93576024356001149160008315610b83575b8315610b6f575b506003549161061f83611b18565b6003556040519161062f83611884565b838352600435602084015261064960243560408501611b27565b61065860443560608501611b33565b33608084015261066781611a43565b9161067560405193846118a0565b81835236828201116100ed5781600092602092838601378301015260a08201524260c0820152600060e0820152600061010082015260006101208201526040518060208101106001600160401b03602083011117610a41576020810160405260008152610140820152821515610160820152816000526004602052604060002090805182556020810151600183015560408101516007811015610b595760ff8019600285015416911617600283015560608101516004811015610b595761073f9060028401611b3f565b608081015160028301805462010000600160b01b03191660109290921b62010000600160b01b031691909117905560a08101518051906001600160401b038211610a4157819061079f82610796600388015461184a565b60038801611b5e565b602090601f8311600114610ae757600092610adc575b50508160011b916000199060031b1c19161760038301555b60c08101516004830155610822600583016107fa60e08401511515829060ff801983541691151516179055565b6101008301518154610100600160a81b03191660089190911b610100600160a81b0316179055565b61012081015160068301556101408101518051906001600160401b038211610a415761085e82610855600787015461184a565b60078701611b5e565b602090601f8311600114610a62579282600893610160936108b19796600092610a57575b50508160011b916000199060031b1c19161760078501555b0151151591019060ff801983541691151516179055565b60043560005260056020526108ca816040600020611bb2565b3360005260066020526108e1816040600020611bb2565b600435600052600760205260406000206108fb8154611b18565b90556001546001600160a01b031691823b156100ed5760008093604460405180968193634b960bc960e01b835260043560048401528760248401525af180156103ff57610a28575b60209250604051610956816024356116d1565b6109648482016044356116de565b81151560408201524260608201523390837ffbf772d0501f34edaf2299ba9d2fc98d5f64e9f6ce5a9af2e643b1a8dd9dc0c9608060043593a46003604435146109e8575b6109b5575b604051908152f35b604051428152817fce62f8f53dab646ee7e3e670a88536c628a35459aa676780c7ee22a8d06c33038460043593a36109ad565b604051827f255a50f73a5c6025713448051b3d0b2125ec19193d5a08b93f27c0180bc25b4f6004359280610a20423360243584611bf6565b0390a36109a8565b6001600160401b038311610a4157602092604052610943565b634e487b7160e01b600052604160045260246000fd5b015190508980610882565b906007850160005260206000209160005b601f1985168110610ac4575083610160936108b1979693600193600897601f19811610610aab575b505050811b01600785015561089a565b015160001960f88460031b161c19169055898080610a9b565b91926020600181928685015181550194019201610a73565b0151905086806107b5565b9250600385016000526020600020906000935b601f1984168510610b3e576001945083601f19811610610b25575b505050811b0160038301556107cd565b015160001960f88460031b161c19169055868080610b15565b81810151835560209485019460019093019290910190610afa565b634e487b7160e01b600052602160045260246000fd5b909250610b59576004602435149183610611565b506024356002149250600061060a565b606460405162461bcd60e51b815260206004820152602060248201527f496e636964656e744d616e616765723a20456e76696f2063616e63656c61646f6044820152fd5b503d806000833e610be881836118a0565b8101906020818303126100ed578051906001600160401b0382116100ed57016101e09081818403126100ed576040519182018281106001600160401b03821117610a415760405280518252610c3f60208201611a2f565b6020830152610c5060408201611a2f565b604083015260608101516001600160401b0381116100ed5783610c74918301611a5e565b606083015260808101516001600160401b0381116100ed5783610c98918301611a5e565b608083015260a08101516001600160401b0381116100ed5783610cbc918301611a5e565b60a083015260c081015160c083015260e081015160e0830152610100808201519060078210156100ed57830152610120808201516001600160401b0381116100ed5784610d0a918401611aba565b90830152610140808201516001600160401b0381116100ed576101c094610d32918401611aba565b90830152610160610d44818301611967565b9083015261018080820151908301526101a08082015190830152610d6a83809201611967565b908201526105ef565b60405162461bcd60e51b815260206004820152602660248201527f496e636964656e744d616e616765723a204465736372697063696f6e2072657160448201526575657269646160d01b6064820152608490fd5b50600154604051632e68e9a360e21b815290602090829060049082906001600160a01b03165afa80156103ff57600090610e07575b6004351090506105a5565b506020813d602011610e33575b81610e21602093836118a0565b810103126100ed576105ae9051610dfc565b3d9150610e14565b506020813d602011610e6e575b81610e55602093836118a0565b810103126100ed57610e6961059a91611967565b610590565b3d9150610e48565b346100ed5760203660031901126100ed57600435610e92611de1565b5080151580610ed5575b610ea590611c1c565b6000526004602052610ed1610ebd6040600020611d2b565b604051918291602083526020830190611733565b0390f35b506003548110610e9c565b346100ed576020806003193601126100ed576004356000526005808252604060002090604051808385829554938481520190600052856000209260005b8782821061102757505050610f34925003836118a0565b60009060005b8351811015610f8957610f4d8185611e8d565b516000526004855260ff82604060002001541615610f74575b610f6f90611b18565b610f3a565b91610f81610f6f91611b18565b929050610f66565b509190610f9590611e3d565b9260009060005b83518110156110195780610fb3610fd09286611e8d565b516000526004835260ff86604060002001541615610fd557611b18565b610f9c565b610fdf8186611e8d565b5160005260048352611013604060002094611002610ffc82611b18565b96611d2b565b61100c828b611e8d565b5288611e8d565b50611b18565b60405180610ed188826117e8565b8554845260019586019588955093019201610f1d565b346100ed5760203660031901126100ed5760043560005260076020526020604060002054604051908152f35b346100ed5760003660031901126100ed576001546040516001600160a01b039091168152602090f35b346100ed576020806003193601126100ed576004358015158061116c575b6110b9906119d8565b600052600581526040600020604051808284829454938481520190600052846000209260005b8682821061115657846110f4818603826118a0565b6110fe8151611e3d565b9160005b825181101561114857806111196111439285611e8d565b516000526004835261112e6040600020611d2b565b6111388287611e8d565b526110138186611e8d565b611102565b60405180610ed186826117e8565b85548452600195860195879550930192016110df565b50600154604051632e68e9a360e21b8152908390829060049082906001600160a01b03165afa80156103ff576000906111a9575b821090506110b0565b508281813d83116111d1575b6111bf81836118a0565b810103126100ed576110b990516111a0565b503d6111b5565b346100ed5760003660031901126100ed57600354600019810190811161120357602090604051908152f35b634e487b7160e01b600052601160045260246000fd5b346100ed5760403660031901126100ed5760246004356001600160401b0382358181116100ed5761124e9036906004016116a4565b60005460405163415dc83b60e11b815233600482015291946020949093926001600160a01b0392831692919086818a81875afa80156103ff57600090611625575b6112999150611974565b8415158061161a575b6112ab90611c1c565b8460005260048652604060002091600583019081549460ff86166115d65789156115845760008b9160405192838092634138d16760e01b82523360048301525afa9081156103ff57600091611569575b5081600286015460101c16331491821561155b575b50811561152e575b50156114d7576001600160a81b03199093163360081b610100600160a81b0316176001908117909355426006830155600782019087116114c25761136687611360835461184a565b83611b5e565b866000601f821160011461145e57600091611453575b50600019600389901b1c191687841b1790555b018054600052600784526040600020805480158015611407575b505050907fa738cbfca27e4a5323b9a81e4fd65821c92f7c1abb723826d9ca6b36d6e1a1e3915493856040519260408452816040850152606084013760006060878401015242908201526060813396601f80199101168101030190a4005b61143e5760001901905593945084937fa738cbfca27e4a5323b9a81e4fd65821c92f7c1abb723826d9ca6b36d6e1a1e387806113a9565b87634e487b7160e01b60005260116004526000fd5b90508401358961137c565b600083815288812092508990601f198216905b8a888383106114ab5750505010611491575b50508287811b01905561138f565b85013560001960038a901b60f8161c191690558880611483565b858b0135875590950194938401938c935001611471565b87634e487b7160e01b60005260416004526000fd5b60405162461bcd60e51b815260048101889052602a818b01527f496e636964656e744d616e616765723a2053696e207065726d69736f2070617260448201526930903932b9b7b63b32b960b11b6064820152608490fd5b6040915001516006811015611546576005148a611318565b89634e487b7160e01b60005260216004526000fd5b60025416331491508b611310565b61157e91503d806000833e6103f181836118a0565b8b6112fb565b60405162461bcd60e51b8152600481018a90526025818d01527f496e636964656e744d616e616765723a205265736f6c7563696f6e2072657175604482015264657269646160d81b6064820152608490fd5b60405162461bcd60e51b8152600481018a9052601c818d01527f496e636964656e744d616e616765723a2059612072657375656c7461000000006044820152606490fd5b5060035485106112a2565b508681813d8311611654575b61163b81836118a0565b810103126100ed5761164f61129991611967565b61128f565b503d611631565b346100ed5760203660031901126100ed57600435600052600760205260206040600020541515604051908152f35b346100ed5760003660031901126100ed576020906003548152f35b9181601f840112156100ed578235916001600160401b0383116100ed57602083818601950101116100ed57565b906007821015610b595752565b906004821015610b595752565b60005b8381106116fe5750506000910152565b81810151838201526020016116ee565b90602091611727815180928185528580860191016116eb565b601f01601f1916010190565b908151815260208201516020820152611754604083015160408301906116d1565b611766606083015160608301906116de565b6117d860018060a01b0380608085015116608084015261179560a08501516101808060a087015285019061170e565b9060c085015160c085015260e0850151151560e085015261010090818601511690840152610120808501519084015261014080850151908483039085015261170e565b9161016080910151151591015290565b602080820190808352835180925260408301928160408460051b8301019501936000915b84831061181c5750505050505090565b909192939495848061183a600193603f198682030187528a51611733565b980193019301919493929061180c565b90600182811c9216801561187a575b602083101461186457565b634e487b7160e01b600052602260045260246000fd5b91607f1691611859565b61018081019081106001600160401b03821117610a4157604052565b90601f801991011681019081106001600160401b03821117610a4157604052565b90604051918260008254926118d58461184a565b9081845260019485811690816000146119445750600114611901575b50506118ff925003836118a0565b565b9093915060005260209081600020936000915b81831061192c5750506118ff935082010138806118f1565b85548884018501529485019487945091830191611914565b9150506118ff94506020925060ff191682840152151560051b82010138806118f1565b519081151582036100ed57565b1561197b57565b60405162461bcd60e51b815260206004820152602f60248201527f496e636964656e744d616e616765723a204163746f72206e6f2072656769737460448201526e7261646f206f20696e61637469766f60881b6064820152608490fd5b156119df57565b60405162461bcd60e51b815260206004820152602260248201527f496e636964656e744d616e616765723a20456e76696f20696e6578697374656e604482015261746560f01b6064820152608490fd5b51906001600160a01b03821682036100ed57565b6001600160401b038111610a4157601f01601f191660200190565b81601f820112156100ed578051611a7481611a43565b92611a8260405194856118a0565b818452602082840101116100ed57611aa091602080850191016116eb565b90565b6001600160401b038111610a415760051b60200190565b81601f820112156100ed57805191611ad183611aa3565b92611adf60405194856118a0565b808452602092838086019260051b8201019283116100ed578301905b828210611b09575050505090565b81518152908301908301611afb565b60001981146112035760010190565b6007821015610b595752565b6004821015610b595752565b906004811015610b595761ff0082549160081b169061ff001916179055565b90601f8111611b6c57505050565b600091825260208220906020601f850160051c83019410611ba8575b601f0160051c01915b828110611b9d57505050565b818155600101611b91565b9092508290611b88565b80549068010000000000000000821015610a415760018201808255821015611be05760005260206000200155565b634e487b7160e01b600052603260045260246000fd5b604091949392611c0a8260608101976116d1565b6001600160a01b031660208201520152565b15611c2357565b60405162461bcd60e51b815260206004820152602760248201527f496e636964656e744d616e616765723a20496e636964656e63696120696e6578604482015266697374656e746560c81b6064820152608490fd5b906020828203126100ed5781516001600160401b03928382116100ed570160c0818303126100ed576040519260c0840184811082821117610a4157604052611cbf82611a2f565b845260208201518181116100ed5783611cd9918401611a5e565b6020850152604082015160068110156100ed57604085015260608201519081116100ed5760a092611d0b918301611a5e565b6060840152611d1c60808201611967565b6080840152015160a082015290565b90604051611d3881611884565b61016060ff6008839580548552600181015460208601526002810154611d6384821660408801611b27565b611d748482851c1660608801611b33565b60101c6001600160a01b039081166080870152611d93600383016118c1565b60a0870152600482015460c08701526005820154848116151560e0880152831c166101008601526006810154610120860152611dd1600782016118c1565b6101408601520154161515910152565b60405190611dee82611884565b81610160600091828152826020820152826040820152826060820152826080820152606060a08201528260c08201528260e0820152826101008201528261012082015260606101408201520152565b90611e4782611aa3565b611e5460405191826118a0565b8281528092611e65601f1991611aa3565b019060005b828110611e7657505050565b602090611e81611de1565b82828501015201611e6a565b8051821015611be05760209160051b01019056fea26469706673582212203dc14f66fb1279f945242628afe1c51162660b9ce76b99330e976061ff268d9764736f6c63430008130033","linkReferences":{}},"methodIdentifiers":{"actorRegistry()":"eae7b935","admin()":"f851a440","getIncident(uint256)":"9578615e","getOpenIncidents(uint256)":"850df29f","getReporterIncidents(address)":"efccd663","getShipmentIncidents(uint256)":"733e28aa","getTotalIncidents()":"636617b9","hasOpenIncidents(uint256)":"5561df6e","incidents(uint256)":"a6c6a8f3","nextIncidentId()":"0fd19668","openIncidentCount(uint256)":"7f78a464","reportIncident(uint256,uint8,uint8,string)":"9bca76e5","resolveIncident(uint256,string)":"5e6b2086","shipmentManager()":"78ba358c","updateSeverity(uint256,uint8)":"cd687ea9"},"id":19}