{"abi":[{"type":"constructor","inputs":[],"stateMutability":"nonpayable"},{"type":"function","name":"actors","inputs":[{"name":"","type":"address","internalType":"address"}],"outputs":[{"name":"actorAddress","type":"address","internalType":"address"},{"name":"name","type":"string","internalType":"string"},{"name":"role","type":"uint8","internalType":"enum ActorRegistry.ActorRole"},{"name":"location","type":"string","internalType":"string"},{"name":"isActive","type":"bool","internalType":"bool"},{"name":"registeredAt","type":"uint256","internalType":"uint256"}],"stateMutability":"view"},{"type":"function","name":"admin","inputs":[],"outputs":[{"name":"","type":"address","internalType":"address"}],"stateMutability":"view"},{"type":"function","name":"authorizeContract","inputs":[{"name":"_contract","type":"address","internalType":"address"}],"outputs":[],"stateMutability":"nonpayable"},{"type":"function","name":"authorizedContracts","inputs":[{"name":"","type":"address","internalType":"address"}],"outputs":[{"name":"","type":"bool","internalType":"bool"}],"stateMutability":"view"},{"type":"function","name":"deactivateActor","inputs":[{"name":"_actorAddress","type":"address","internalType":"address"}],"outputs":[],"stateMutability":"nonpayable"},{"type":"function","name":"getActor","inputs":[{"name":"_actorAddress","type":"address","internalType":"address"}],"outputs":[{"name":"","type":"tuple","internalType":"struct ActorRegistry.Actor","components":[{"name":"actorAddress","type":"address","internalType":"address"},{"name":"name","type":"string","internalType":"string"},{"name":"role","type":"uint8","internalType":"enum ActorRegistry.ActorRole"},{"name":"location","type":"string","internalType":"string"},{"name":"isActive","type":"bool","internalType":"bool"},{"name":"registeredAt","type":"uint256","internalType":"uint256"}]}],"stateMutability":"view"},{"type":"function","name":"getActorsPaginated","inputs":[{"name":"_offset","type":"uint256","internalType":"uint256"},{"name":"_limit","type":"uint256","internalType":"uint256"}],"outputs":[{"name":"result","type":"tuple[]","internalType":"struct ActorRegistry.Actor[]","components":[{"name":"actorAddress","type":"address","internalType":"address"},{"name":"name","type":"string","internalType":"string"},{"name":"role","type":"uint8","internalType":"enum ActorRegistry.ActorRole"},{"name":"location","type":"string","internalType":"string"},{"name":"isActive","type":"bool","internalType":"bool"},{"name":"registeredAt","type":"uint256","internalType":"uint256"}]}],"stateMutability":"view"},{"type":"function","name":"getTotalActors","inputs":[],"outputs":[{"name":"","type":"uint256","internalType":"uint256"}],"stateMutability":"view"},{"type":"function","name":"hasRole","inputs":[{"name":"_actorAddress","type":"address","internalType":"address"},{"name":"_role","type":"uint8","internalType":"enum ActorRegistry.ActorRole"}],"outputs":[{"name":"","type":"bool","internalType":"bool"}],"stateMutability":"view"},{"type":"function","name":"isActiveActor","inputs":[{"name":"_actorAddress","type":"address","internalType":"address"}],"outputs":[{"name":"","type":"bool","internalType":"bool"}],"stateMutability":"view"},{"type":"function","name":"logisticsContract","inputs":[],"outputs":[{"name":"","type":"address","internalType":"address"}],"stateMutability":"view"},{"type":"function","name":"reactivateActor","inputs":[{"name":"_actorAddress","type":"address","internalType":"address"}],"outputs":[],"stateMutability":"nonpayable"},{"type":"function","name":"registerActor","inputs":[{"name":"_name","type":"string","internalType":"string"},{"name":"_role","type":"uint8","internalType":"enum ActorRegistry.ActorRole"},{"name":"_location","type":"string","internalType":"string"}],"outputs":[],"stateMutability":"nonpayable"},{"type":"function","name":"registerActorFor","inputs":[{"name":"_actorAddress","type":"address","internalType":"address"},{"name":"_name","type":"string","internalType":"string"},{"name":"_role","type":"uint8","internalType":"enum ActorRegistry.ActorRole"},{"name":"_location","type":"string","internalType":"string"}],"outputs":[],"stateMutability":"nonpayable"},{"type":"function","name":"revokeContract","inputs":[{"name":"_contract","type":"address","internalType":"address"}],"outputs":[],"stateMutability":"nonpayable"},{"type":"function","name":"updateActor","inputs":[{"name":"_name","type":"string","internalType":"string"},{"name":"_location","type":"string","internalType":"string"}],"outputs":[],"stateMutability":"nonpayable"},{"type":"event","name":"ActorDeactivated","inputs":[{"name":"actorAddress","type":"address","indexed":true,"internalType":"address"},{"name":"timestamp","type":"uint256","indexed":false,"internalType":"uint256"}],"anonymous":false},{"type":"event","name":"ActorRegistered","inputs":[{"name":"actorAddress","type":"address","indexed":true,"internalType":"address"},{"name":"name","type":"string","indexed":false,"internalType":"string"},{"name":"role","type":"uint8","indexed":false,"internalType":"enum ActorRegistry.ActorRole"},{"name":"timestamp","type":"uint256","indexed":false,"internalType":"uint256"}],"anonymous":false},{"type":"event","name":"ActorUpdated","inputs":[{"name":"actorAddress","type":"address","indexed":true,"internalType":"address"},{"name":"newName","type":"string","indexed":false,"internalType":"string"},{"name":"newLocation","type":"string","indexed":false,"internalType":"string"},{"name":"timestamp","type":"uint256","indexed":false,"internalType":"uint256"}],"anonymous":false},{"type":"event","name":"ContractAuthorized","inputs":[{"name":"contractAddress","type":"address","indexed":true,"internalType":"address"}],"anonymous":false},{"type":"event","name":"ContractRevoked","inputs":[{"name":"contractAddress","type":"address","indexed":true,"internalType":"address"}],"anonymous":false}],"bytecode":{"object":"0x60406080815234620004e857600080546001600160a01b0319163317905562000027620004ed565b601081526f41646d696e20436861696e547261636b60801b60208201526200004e620004ed565b600781526653697374656d6160c81b602082015282519060c082016001600160401b03811183821017620003db5784523380835260208084018581526005858801526060850193909352600160808501524260a0850152600091825260029052849020825181546001600160a01b0319166001600160a01b039190911617815590518051906001600160401b038211620003db576001830154908160011c916001811615620004dd575b6001166020831014620003ba5781601f84931162000485575b50602090601f8311600114620004135760009262000407575b50508160011b916000199060031b1c19161760018201555b60028101848301516006811015620003f15760ff80198354169116179055606082015180519060018060401b038211620003db57600383015490600182811c92168015620003d0575b6020831014620003ba5781601f84931162000362575b50602090601f8311600114620002f057600092620002e4575b50508160011b916000199060031b1c19161760038201555b600560a06004938484016080820151151560ff80198354169116179055015191015580549068010000000000000000821015620002cf5760018201808255821015620002ba576000526020600020013360018060a01b031982541617905581516060815281519182606083015260005b838110620002a35750508060006080847f8ec3a61dc62bd1a7fe3f8b481d30a2a0f7b03f727b7b2a084f4512ea3154ba7a940101526005602082015242848201526080813394601f80199101168101030190a25161146490816200050e8239f35b806020809284010151608082860101520162000242565b603290634e487b7160e01b6000525260246000fd5b604190634e487b7160e01b6000525260246000fd5b015190503880620001ba565b600385016000908152602081209350601f198516905b8181106200034957509084600195949392106200032f575b505050811b016003820155620001d2565b015160001960f88460031b161c191690553880806200031e565b9293602060018192878601518155019501930162000306565b909150600384016000526020600020601f840160051c810160208510620003b2575b90849392915b601f830160051c82018110620003a2575050620001a1565b600081558594506001016200038a565b508062000384565b634e487b7160e01b600052602260045260246000fd5b91607f16916200018b565b634e487b7160e01b600052604160045260246000fd5b634e487b7160e01b600052602160045260246000fd5b0151905038806200012a565b600185016000908152602081209350601f198516905b8181106200046c575090846001959493921062000452575b505050811b01600182015562000142565b015160001960f88460031b161c1916905538808062000441565b9293602060018192878601518155019501930162000429565b909150600184016000526020600020601f840160051c810160208510620004d5575b90849392915b601f830160051c82018110620004c557505062000111565b60008155859450600101620004ad565b5080620004a7565b91607f1691620000f8565b600080fd5b60408051919082016001600160401b03811183821017620003db5760405256fe60406080815260048036101561001457600080fd5b600091823560e01c806321afe04e146109ab5780634138d16714610936578063544bed471461064657806358dcf85e146105e4578063602c6966146105bb57806367561d931461054957806382bb90761461050957806395a8c58d1461047b578063b148c77d146103ff578063bfa9eb25146103e1578063c4edcf8b146102e4578063cc2e3ee114610275578063d5b9221b14610237578063eaa66a3c14610188578063f851a4401461015c5763fc436695146100d057600080fd5b346101585760203660031901126101585760207ffa3aef1a21b86d05c74356622340fb3c1ac8623b909402e58aa5b64c21246a369161010d610a65565b9361013d60018060a01b038096610128828a54163314610d89565b16958688526002855283882054161515610dd5565b8486526002835281862001805460ff1916905551428152a280f35b8280fd5b838234610184578160031936011261018457905490516001600160a01b039091168152602090f35b5080fd5b509134610234576020366003190112610234576001600160a01b03908390826101af610a65565b16815260026020522090815416916102236101cc60018401610c04565b9460ff60028501541692610216600560ff6101e960038901610c04565b93880154169601549461020d8451998a998a5260c060208b015260c08a0190610aae565b93880190610aee565b8582036060870152610aae565b911515608084015260a08301520390f35b80fd5b8382346101845760203660031901126101845760209160ff9082906001600160a01b03610262610a65565b1681526003855220541690519015158152f35b83823461018457602036600319011261018457610290610a65565b82546001600160a01b0391906102a99083163314610d89565b168083526003602052908220805460ff191690557f38cef8c286dbc5b3cb3edbc03ac9ab70b4ee28e1620b6c1530f5ae1070cf4aab8280a280f35b509190346101845760603660031901126101845767ffffffffffffffff81358181116103dd576103179036908401610a80565b92906024359260068410156103d9576044359081116103d95761033d9036908401610a80565b94909261034b851515610caa565b8115610396575061038c92916103849161037d6103939899338b52600260205260018060a01b03908b20541615610cf6565b3691610d42565b933691610d42565b9133611139565b80f35b606490602089519162461bcd60e51b8352820152601f60248201527f4163746f7252656769737472793a204e6f6d6272652072657175657269646f006044820152fd5b8580fd5b8380fd5b50903461015857826003193601126101585760209250549051908152f35b50919034610184578260031936011261018457610420906024359035610fdf565b825191602080840190808552835180925280868601968360051b870101940192955b82871061044f5785850386f35b90919293828061046b600193603f198a82030186528851610b11565b9601920196019592919092610442565b50829034610184578060031936011261018457610496610a65565b6024359060068210156103dd576001600160a01b0316835260026020528183208481015460ff169390846104d1575b60208585519015158152f35b60ff919293945060020154169060068210156104f657506020935014908380806104c5565b634e487b7160e01b815260218552602490fd5b5090346101585760203660031901126101585760209260ff919083906001600160a01b03610535610a65565b168152600286522001541690519015158152f35b83823461018457602036600319011261018457610564610a65565b82546001600160a01b03919061057d9083163314610d89565b168083526003602052908220805460ff191660011790557f8983a1f3c3cb45c24c8226b5b805e3b6eb49686530b808534b2a920129eff6518280a280f35b83823461018457816003193601126101845760015490516001600160a01b039091168152602090f35b5034610158576020366003190112610158576105fe610a65565b61062e60018060a01b038092610618828854163314610d89565b1691828652600260205283862054161515610dd5565b83526002602052822001805460ff1916600117905580f35b50903461015857816003193601126101585767ffffffffffffffff908035828111610932576106789036908301610a80565b9260243581811161092e576106909036908501610a80565b929091338852602094600286526106b360018060a01b03898b2054161515610dd5565b3389526002865260ff81898b20015416156108eb573389526002865260019081898b20018389116108d8576106f2896106ec8354610b76565b83610e21565b888b601f8211600114610879578c9161086e575b5060001960038b901b1c191689841b1790555b338a52600287526003898b200192861161085b57506107428561073c8454610b76565b84610e21565b8889601f87116001146107d0579286806107a9946107b69997947f8d0faafe2fb1cc3b96e18fdd911495a3f8f072d5b7dbb3d2d90ae325d3ea43859c9b9997936107c5575b501b906000198760031b1c19161790555b885196606088526060880191610e75565b9285840390860152610e75565b9242908201528033930390a280f35b870135925038610787565b50828a52868a2090601f1987168b5b8181106108465750928795927f8d0faafe2fb1cc3b96e18fdd911495a3f8f072d5b7dbb3d2d90ae325d3ea43859a999795926107b6996107a9961061082c575b505085811b019055610798565b860135600019600389901b60f8161c19169055388061081f565b878301358455928401929189019189016107df565b634e487b7160e01b8a5260419052602489fd5b905085013538610706565b828d52898d2091601f1981168e5b8c888383106108c157505050106108a7575b50508289811b019055610719565b86013560001960038c901b60f8161c191690553880610899565b858c0135875590950194938401938e935001610887565b634e487b7160e01b8b526041825260248bfd5b875162461bcd60e51b8152908101869052601d60248201527f4163746f7252656769737472793a204163746f7220696e61637469766f0000006044820152606490fd5b8680fd5b8480fd5b83823461018457602036600319011261018457610994816109a793610959610a65565b610961610e96565b506001600160a01b03908116808352600260205283832054909161098791161515610dd5565b8152600260205220610ed4565b9051918291602083526020830190610b11565b0390f35b509034610158576080366003190112610158576109c6610a65565b90836024359167ffffffffffffffff92838111610158576109ea9036908301610a80565b95909360443594600686101561093257606435918211610932576103939761037d610a1e610a5f96610a5795369101610a80565b975490956001600160a01b0391610a389083163314610d89565b610a438a1515610caa565b818b168d5260026020528c20541615610cf6565b923691610d42565b92611139565b600435906001600160a01b0382168203610a7b57565b600080fd5b9181601f84011215610a7b5782359167ffffffffffffffff8311610a7b5760208381860195010111610a7b57565b919082519283825260005b848110610ada575050826000602080949584010152601f8019910116010190565b602081830181015184830182015201610ab9565b906006821015610afb5752565b634e487b7160e01b600052602160045260246000fd5b9060018060a01b03825116815260a080610b61610b3d602086015160c0602087015260c0860190610aae565b610b4f60408701516040870190610aee565b60608601518582036060870152610aae565b93608081015115156080850152015191015290565b90600182811c92168015610ba6575b6020831014610b9057565b634e487b7160e01b600052602260045260246000fd5b91607f1691610b85565b60c0810190811067ffffffffffffffff821117610bcc57604052565b634e487b7160e01b600052604160045260246000fd5b90601f8019910116810190811067ffffffffffffffff821117610bcc57604052565b9060405191826000825492610c1884610b76565b908184526001948581169081600014610c875750600114610c44575b5050610c4292500383610be2565b565b9093915060005260209081600020936000915b818310610c6f575050610c4293508201013880610c34565b85548884018501529485019487945091830191610c57565b915050610c4294506020925060ff191682840152151560051b8201013880610c34565b15610cb157565b60405162461bcd60e51b815260206004820152601b60248201527f4163746f7252656769737472793a20526f6c20696e76616c69646f00000000006044820152606490fd5b15610cfd57565b60405162461bcd60e51b815260206004820152601c60248201527f4163746f7252656769737472793a205961207265676973747261646f000000006044820152606490fd5b92919267ffffffffffffffff8211610bcc5760405191610d6c601f8201601f191660200184610be2565b829481845281830111610a7b578281602093846000960137010152565b15610d9057565b60405162461bcd60e51b815260206004820152601960248201527f4163746f7252656769737472793a20536f6c6f2061646d696e000000000000006044820152606490fd5b15610ddc57565b60405162461bcd60e51b815260206004820152601e60248201527f4163746f7252656769737472793a204163746f72206e6f2065786973746500006044820152606490fd5b90601f8111610e2f57505050565b600091825260208220906020601f850160051c83019410610e6b575b601f0160051c01915b828110610e6057505050565b818155600101610e54565b9092508290610e4b565b908060209392818452848401376000828201840152601f01601f1916010190565b60405190610ea382610bb0565b600060a083828152606060208201528260408201526060808201528260808201520152565b6006821015610afb5752565b90604051610ee181610bb0565b82546001600160a01b0316815291829060a090600590610f0360018201610c04565b6020850152610f1c60ff60028301541660408601610ec8565b610f2860038201610c04565b606085015260ff600482015416151560808501520154910152565b67ffffffffffffffff8111610bcc5760051b60200190565b91908203918211610f6857565b634e487b7160e01b600052601160045260246000fd5b600454811015610fb55760046000527f8a35acfbc15ff81a39ae7d344fd709f28e8600b4aa8c65c6b64bfe7fe36bd19b0190600090565b634e487b7160e01b600052603260045260246000fd5b8051821015610fb55760209160051b010190565b91906004805491828510156110f9578401918285116110e4578083116110dc575b5061100b8483610f5b565b9361101585610f43565b60409561102487519283610be2565b808252611033601f1991610f43565b0160005b8181106110c55750508095825b85811061105357505050505050565b61105c81610f7e565b60018060a01b0391549060031b1c16600052600260205261109e8260002061108d6110878785610f5b565b91610ed4565b6110978287610fcb565b5284610fcb565b5060001981146110b057600101611044565b601185634e487b7160e01b6000525260246000fd5b6020906110d0610e96565b82828601015201611037565b915038611000565b601182634e487b7160e01b6000525260246000fd5b5060405192935060208301915067ffffffffffffffff82118383101761112457506040526000815290565b604190634e487b7160e01b6000525260246000fd5b926040519361114785610bb0565b6001600160a01b03168085526020850183815290949091604082019061116d8683610ec8565b60608301908152600160808401524260a08401526000878152600260205260409020835181546001600160a01b0319166001600160a01b0391909116178155935180519067ffffffffffffffff8211610bcc5781906111dc826111d360018a0154610b76565b60018a01610e21565b602090601f83116001146113bc576000926113b1575b50508160011b916000199060031b1c19161760018501555b600284019151916006831015610afb5760ff199260ff84835416911617905560038401905180519067ffffffffffffffff8211610bcc576112558261124f8554610b76565b85610e21565b602090601f8311600114611342579180600596949260a09694600092611337575b50508160011b916000199060031b1c19161790555b600485019060ff6080840151151591835416911617905501519101556004549068010000000000000000821015610bcc577f8ec3a61dc62bd1a7fe3f8b481d30a2a0f7b03f727b7b2a084f4512ea3154ba7a926112f18360016113219501600455610f7e565b81549060031b9087821b9160018060a01b03901b191617905561132c604051938493606085526060850190610aae565b916020840190610aee565b4260408301520390a2565b015190503880611276565b90601f198316918460005260206000209260005b818110611399575092600192859260a0989660059a989610611380575b505050811b01905561128b565b015160001960f88460031b161c19169055388080611373565b92936020600181928786015181550195019301611356565b0151905038806111f2565b9250600187016000526020600020906000935b601f1984168510611413576001945083601f198116106113fa575b505050811b01600185015561120a565b015160001960f88460031b161c191690553880806113ea565b818101518355602094850194600190930192909101906113cf56fea26469706673582212203775b54624fd02ba98f36f9ddd242e1b8a55c79e4292a0cd3e5107d44e3b361164736f6c63430008130033","linkReferences":{}},"methodIdentifiers":{"actors(address)":"eaa66a3c","admin()":"f851a440","authorizeContract(address)":"67561d93","authorizedContracts(address)":"d5b9221b","deactivateActor(address)":"fc436695","getActor(address)":"4138d167","getActorsPaginated(uint256,uint256)":"b148c77d","getTotalActors()":"bfa9eb25","hasRole(address,uint8)":"95a8c58d","isActiveActor(address)":"82bb9076","logisticsContract()":"602c6966","reactivateActor(address)":"58dcf85e","registerActor(string,uint8,string)":"c4edcf8b","registerActorFor(address,string,uint8,string)":"21afe04e","revokeContract(address)":"cc2e3ee1","updateActor(string,string)":"544bed47"},"id":16}