{"abi":[{"type":"constructor","inputs":[{"name":"_actorRegistry","type":"address","internalType":"address"}],"stateMutability":"nonpayable"},{"type":"function","name":"actorRegistry","inputs":[],"outputs":[{"name":"","type":"address","internalType":"contract ActorRegistry"}],"stateMutability":"view"},{"type":"function","name":"addCheckpointToShipment","inputs":[{"name":"_shipmentId","type":"uint256","internalType":"uint256"},{"name":"_checkpointId","type":"uint256","internalType":"uint256"}],"outputs":[],"stateMutability":"nonpayable"},{"type":"function","name":"addIncidentToShipment","inputs":[{"name":"_shipmentId","type":"uint256","internalType":"uint256"},{"name":"_incidentId","type":"uint256","internalType":"uint256"}],"outputs":[],"stateMutability":"nonpayable"},{"type":"function","name":"admin","inputs":[],"outputs":[{"name":"","type":"address","internalType":"address"}],"stateMutability":"view"},{"type":"function","name":"cancelShipment","inputs":[{"name":"_shipmentId","type":"uint256","internalType":"uint256"},{"name":"_reason","type":"string","internalType":"string"}],"outputs":[],"stateMutability":"nonpayable"},{"type":"function","name":"checkpointTracker","inputs":[],"outputs":[{"name":"","type":"address","internalType":"address"}],"stateMutability":"view"},{"type":"function","name":"confirmDelivery","inputs":[{"name":"_shipmentId","type":"uint256","internalType":"uint256"}],"outputs":[],"stateMutability":"nonpayable"},{"type":"function","name":"createShipment","inputs":[{"name":"_recipient","type":"address","internalType":"address"},{"name":"_product","type":"string","internalType":"string"},{"name":"_origin","type":"string","internalType":"string"},{"name":"_destination","type":"string","internalType":"string"},{"name":"_requiresColdChain","type":"bool","internalType":"bool"},{"name":"_minTemp","type":"int256","internalType":"int256"},{"name":"_maxTemp","type":"int256","internalType":"int256"}],"outputs":[{"name":"","type":"uint256","internalType":"uint256"}],"stateMutability":"nonpayable"},{"type":"function","name":"getActorShipments","inputs":[{"name":"_actor","type":"address","internalType":"address"}],"outputs":[{"name":"","type":"uint256[]","internalType":"uint256[]"}],"stateMutability":"view"},{"type":"function","name":"getRecipientShipments","inputs":[{"name":"_recipient","type":"address","internalType":"address"}],"outputs":[{"name":"","type":"uint256[]","internalType":"uint256[]"}],"stateMutability":"view"},{"type":"function","name":"getSenderShipments","inputs":[{"name":"_sender","type":"address","internalType":"address"}],"outputs":[{"name":"","type":"uint256[]","internalType":"uint256[]"}],"stateMutability":"view"},{"type":"function","name":"getShipment","inputs":[{"name":"_shipmentId","type":"uint256","internalType":"uint256"}],"outputs":[{"name":"","type":"tuple","internalType":"struct ShipmentManager.Shipment","components":[{"name":"id","type":"uint256","internalType":"uint256"},{"name":"sender","type":"address","internalType":"address"},{"name":"recipient","type":"address","internalType":"address"},{"name":"product","type":"string","internalType":"string"},{"name":"origin","type":"string","internalType":"string"},{"name":"destination","type":"string","internalType":"string"},{"name":"dateCreated","type":"uint256","internalType":"uint256"},{"name":"dateDelivered","type":"uint256","internalType":"uint256"},{"name":"status","type":"uint8","internalType":"enum ShipmentManager.ShipmentStatus"},{"name":"checkpointIds","type":"uint256[]","internalType":"uint256[]"},{"name":"incidentIds","type":"uint256[]","internalType":"uint256[]"},{"name":"requiresColdChain","type":"bool","internalType":"bool"},{"name":"minTemp","type":"int256","internalType":"int256"},{"name":"maxTemp","type":"int256","internalType":"int256"},{"name":"isCancelled","type":"bool","internalType":"bool"}]}],"stateMutability":"view"},{"type":"function","name":"getShipmentStatus","inputs":[{"name":"_shipmentId","type":"uint256","internalType":"uint256"}],"outputs":[{"name":"","type":"uint8","internalType":"enum ShipmentManager.ShipmentStatus"}],"stateMutability":"view"},{"type":"function","name":"getTotalShipments","inputs":[],"outputs":[{"name":"","type":"uint256","internalType":"uint256"}],"stateMutability":"view"},{"type":"function","name":"initiateReturn","inputs":[{"name":"_shipmentId","type":"uint256","internalType":"uint256"},{"name":"_reason","type":"string","internalType":"string"}],"outputs":[],"stateMutability":"nonpayable"},{"type":"function","name":"nextShipmentId","inputs":[],"outputs":[{"name":"","type":"uint256","internalType":"uint256"}],"stateMutability":"view"},{"type":"function","name":"setCheckpointTracker","inputs":[{"name":"_tracker","type":"address","internalType":"address"}],"outputs":[],"stateMutability":"nonpayable"},{"type":"function","name":"shipments","inputs":[{"name":"","type":"uint256","internalType":"uint256"}],"outputs":[{"name":"id","type":"uint256","internalType":"uint256"},{"name":"sender","type":"address","internalType":"address"},{"name":"recipient","type":"address","internalType":"address"},{"name":"product","type":"string","internalType":"string"},{"name":"origin","type":"string","internalType":"string"},{"name":"destination","type":"string","internalType":"string"},{"name":"dateCreated","type":"uint256","internalType":"uint256"},{"name":"dateDelivered","type":"uint256","internalType":"uint256"},{"name":"status","type":"uint8","internalType":"enum ShipmentManager.ShipmentStatus"},{"name":"requiresColdChain","type":"bool","internalType":"bool"},{"name":"minTemp","type":"int256","internalType":"int256"},{"name":"maxTemp","type":"int256","internalType":"int256"},{"name":"isCancelled","type":"bool","internalType":"bool"}],"stateMutability":"view"},{"type":"function","name":"updateShipmentStatus","inputs":[{"name":"_shipmentId","type":"uint256","internalType":"uint256"},{"name":"_newStatus","type":"uint8","internalType":"enum ShipmentManager.ShipmentStatus"}],"outputs":[],"stateMutability":"nonpayable"},{"type":"function","name":"updateStatusFromCheckpoint","inputs":[{"name":"_shipmentId","type":"uint256","internalType":"uint256"},{"name":"_newStatus","type":"uint8","internalType":"enum ShipmentManager.ShipmentStatus"}],"outputs":[],"stateMutability":"nonpayable"},{"type":"event","name":"DeliveryConfirmed","inputs":[{"name":"shipmentId","type":"uint256","indexed":true,"internalType":"uint256"},{"name":"recipient","type":"address","indexed":true,"internalType":"address"},{"name":"timestamp","type":"uint256","indexed":false,"internalType":"uint256"}],"anonymous":false},{"type":"event","name":"ShipmentCancelled","inputs":[{"name":"shipmentId","type":"uint256","indexed":true,"internalType":"uint256"},{"name":"cancelledBy","type":"address","indexed":true,"internalType":"address"},{"name":"reason","type":"string","indexed":false,"internalType":"string"},{"name":"timestamp","type":"uint256","indexed":false,"internalType":"uint256"}],"anonymous":false},{"type":"event","name":"ShipmentCreated","inputs":[{"name":"shipmentId","type":"uint256","indexed":true,"internalType":"uint256"},{"name":"sender","type":"address","indexed":true,"internalType":"address"},{"name":"recipient","type":"address","indexed":true,"internalType":"address"},{"name":"product","type":"string","indexed":false,"internalType":"string"},{"name":"coldChain","type":"bool","indexed":false,"internalType":"bool"},{"name":"timestamp","type":"uint256","indexed":false,"internalType":"uint256"}],"anonymous":false},{"type":"event","name":"ShipmentReturned","inputs":[{"name":"shipmentId","type":"uint256","indexed":true,"internalType":"uint256"},{"name":"initiatedBy","type":"address","indexed":true,"internalType":"address"},{"name":"reason","type":"string","indexed":false,"internalType":"string"},{"name":"timestamp","type":"uint256","indexed":false,"internalType":"uint256"}],"anonymous":false},{"type":"event","name":"ShipmentStatusChanged","inputs":[{"name":"shipmentId","type":"uint256","indexed":true,"internalType":"uint256"},{"name":"oldStatus","type":"uint8","indexed":false,"internalType":"enum ShipmentManager.ShipmentStatus"},{"name":"newStatus","type":"uint8","indexed":false,"internalType":"enum ShipmentManager.ShipmentStatus"},{"name":"changedBy","type":"address","indexed":true,"internalType":"address"},{"name":"timestamp","type":"uint256","indexed":false,"internalType":"uint256"}],"anonymous":false}],"bytecode":{"object":"0x6080346101ec57601f6123e738819003918201601f1916830192916001600160401b038411838510176101f157808392604095865283396020928391810103126101ec57516001600160a01b038116908190036101ec578260019160029383855560018060a01b0319913383865416178555600092835416178255818052600680825283832085845282528383209560ff1996868882541617905583805281835284842081855283528484208688825416179055838052818352848420828552835284842086888254161790558584528183528484208185528352848420868882541617905585845281835284842060038552835284842086888254161790558584528183528484206005855283528484208688825416179055858452818352848420828552835284842086888254161790558084528183528484208685528352848420868882541617905580845281835284842060038552835284842086888254161790558084528183528484206005855283528484208688825416179055835280825283832081845282528383208587825416179055600383528082528383206004845282528383208587825416179055600383528082528383206005845282528383208587825416179055815282822090848352522091825416179055516121df90816102088239f35b600080fd5b634e487b7160e01b600052604160045260246000fdfe6080604052600436101561001257600080fd5b60003560e01c806305c1e77614611a57578063092b3740146117ae578063201a3bf7146117855780632643ce33146115b15780632ac08a931461149c5780633ba84683146114755780634b960bc91461144c57806372f2f93a146113505780637defa9201461100f578063885301b214610fce5780638b92f9d114610f3d5780639ab21a1b1461073d5780639d9ee239146104c7578063a61121fa1461048d578063aab29d7714610443578063b9a3a68c14610425578063eae7b935146103fc578063ee21259d146103a6578063f851a4401461037d5763fd84cb97146100f857600080fd5b34610365576020806003193601126103655760043560018060a01b0360248382600054166040519283809263415dc83b60e11b82523360048301525afa801561037157600090610336575b61014d9150611d07565b8115158061032b575b61015f90611df7565b816000526003835261017c60ff600e604060002001541615611e4e565b816000526003835260406000209060028201541633036102cf57600881019081549160ff8316926007841015806102ac57600385149081156102c2575b811561029c575b50156102315760049060ff19161790556007429101556101e36040518092611ad5565b6004838201524260408201528160008051602061218a83398151915260603393a37f2f4a952729db32131cb3d658cc231127e0ce7e50f83508ece9a49c985f2384d0604051924284523393a3005b60405162461bcd60e51b815260048101879052603760248201527f536869706d656e744d616e616765723a2045737461646f20696e76616c69646f60448201527f207061726120636f6e6669726d617220656e74726567610000000000000000006064820152608490fd5b90506102ac5760028414386101c0565b634e487b7160e01b600052602160045260246000fd5b50506001841460006101b9565b60405162461bcd60e51b815260048101849052602e60248201527f536869706d656e744d616e616765723a20536f6c6f20656c2064657374696e6160448201526d746172696f20636f6e6669726d6160901b6064820152608490fd5b506002548210610156565b508381813d831161036a575b61034c8183611bcc565b810103126103655761036061014d91611cfa565b610143565b600080fd5b503d610342565b6040513d6000823e3d90fd5b34610365576000366003190112610365576001546040516001600160a01b039091168152602090f35b3461036557602036600319011261036557600435801515806103f1575b6103cc90611df7565b6000526003602052602060ff600860406000200154166103ef6040518092611ad5565bf35b5060025481106103c3565b34610365576000366003190112610365576000546040516001600160a01b039091168152602090f35b34610365576000366003190112610365576020600254604051908152f35b34610365576020366003190112610365576001600160a01b03610464611ca9565b16600052600460205261048961047d6040600020612026565b60405191829182611cbf565b0390f35b34610365576020366003190112610365576001600160a01b036104ae611ca9565b16600052600560205261048961047d6040600020612026565b34610365576104d536611b43565b60005460405163415dc83b60e11b815233600482015260209493916001600160a01b03908116918681602481865afa801561037157600090610707575b61051c9150611d07565b841515806106fc575b61052e90611df7565b846000526003865261054b60ff600e604060002001541615611e4e565b846000526003865260ff600860406000200154169060078210156102ac5761057860046024931415611e99565b85600052600387526000604081209360405193848092634138d16760e01b82523360048301525afa918215610371576000926106d7575b508060018401541633149182156106bd575b5081156106af575b5015610657577fec912eed313c41e35220050a56f90a8f2c811aed43a2b4d9475c746fa53b7063929160ff6106166008610649940180549060058419831617905560405192839116611ad5565b6005878201524260408201528560008051602061218a83398151915260603393a360405192604084526040840191611dd6565b9342908201528033940390a3005b60405162461bcd60e51b815260048101869052602a60248201527f536869706d656e744d616e616765723a2053696e207065726d69736f2070617260448201526930903232bb37b63b32b960b11b6064820152608490fd5b9050600154163314866105c9565b6040919250015160068110156102ac5760051490876105c1565b6106f59192503d806000833e6106ed8183611bcc565b810190611f45565b90876105af565b506002548510610525565b508681813d8311610736575b61071d8183611bcc565b810103126103655761073161051c91611cfa565b610512565b503d610713565b346103655760e036600319011261036557610756611ca9565b6024356001600160401b03811161036557610775903690600401611b16565b6044929192356001600160401b03811161036557610797903690600401611b16565b92906064356001600160401b038111610365576107b8903690600401611b16565b906084351515608435036103655760005460405163415dc83b60e11b815233600482015290602090829060249082906001600160a01b03165afa801561037157600090610f02575b61080a9150611d07565b6001600160a01b03841615610eae576001600160a01b0384163314610e57578415610e06578515610db7578115610d6757608435610d00575b6002549561085087611d6b565b600290815560008881526003602052604090208881556001810180546001600160a01b0319908116331790915591810180549092166001600160a01b03881617909155936001600160401b038711610b59576108af6003860154611b76565b601f8111610cb9575b50866000601f8211600114610c4957600091610c3e575b508760011b906000198960031b1c19161760038601555b6001600160401b038211610b595781906109036004870154611b76565b601f8111610beb575b50600090601f8311600114610b7a57600092610b6f575b50508160011b916000199060031b1c19161760048401555b6001600160401b038211610b59576109566005840154611b76565b601f8111610b12575b5091602096918693600090601f8311600114610a7b579180610a4694927fc055d8c647766299a61394a6e98e70363a7a30b945d1be87105a380e1ceed3359694600092610a70575b50508160011b916000199060031b1c19161760058201555b426006820155600e600882019160ff1992838154169055600b81018381541660ff60843515151617905560a435600c82015560c435600d820155019081541690553360005260048852610a16846040600020611d92565b60018060a01b03851660005260058852610a34846040600020611d92565b60405195606087526060870191611dd6565b6084351515858801524260408601526001600160a01b0390931693339381900390a4604051908152f35b013590508b806109a7565b60058401600052896000209160005b601f1985168110610af8575092610a4694926001927fc055d8c647766299a61394a6e98e70363a7a30b945d1be87105a380e1ceed335979583601f19811610610ade575b505050811b0160058201556109bf565b0135600019600384901b60f8161c191690558b8080610ace565b8183013584558a9750600190930192908b01908b01610a8a565b600584016000526020600020601f840160051c810160208510610b52575b601f830160051c82018110610b4657505061095f565b60008155600101610b30565b5080610b30565b634e487b7160e01b600052604160045260246000fd5b013590508980610923565b909150601f198316916004870160005260206000209260005b818110610bd35750908460019594939210610bb9575b505050811b01600484015561093b565b0135600019600384901b60f8161c19169055898080610ba9565b91936020600181928787013581550195019201610b93565b909150600486016000526020600020601f840160051c810160208510610c37575b90849392915b601f830160051c82018110610c2857505061090c565b60008155859450600101610c12565b5080610c0c565b90508901358a6108cf565b90506003860160005260206000209060005b8b601f198b168210610ca157505088601f19811610610c87575b5050600187811b0160038601556108e6565b8a013560001960038a901b60f8161c191690558980610c75565b60018394602093948493013581550193019101610c5b565b600386016000526020600020601f890160051c810160208a10610cf9575b601f830160051c82018110610ced5750506108b8565b60008155600101610cd7565b5080610cd7565b60c43560a435126108435760405162461bcd60e51b815260206004820152602e60248201527f536869706d656e744d616e616765723a2052616e676f2064652074656d70657260448201526d617475726120696e76616c69646f60901b6064820152608490fd5b60405162461bcd60e51b815260206004820152602260248201527f536869706d656e744d616e616765723a2044657374696e6f2072657175657269604482015261646f60f01b6064820152608490fd5b60405162461bcd60e51b815260206004820152602160248201527f536869706d656e744d616e616765723a204f726967656e2072657175657269646044820152606f60f81b6064820152608490fd5b60405162461bcd60e51b815260206004820152602360248201527f536869706d656e744d616e616765723a2050726f647563746f2072657175657260448201526269646f60e81b6064820152608490fd5b60405162461bcd60e51b815260206004820152602960248201527f536869706d656e744d616e616765723a2052656d6974656e7465203d2044657360448201526874696e61746172696f60b81b6064820152608490fd5b60405162461bcd60e51b815260206004820152602660248201527f536869706d656e744d616e616765723a2044657374696e61746172696f20696e60448201526576616c69646f60d01b6064820152608490fd5b506020813d602011610f35575b81610f1c60209383611bcc565b8101031261036557610f3061080a91611cfa565b610800565b3d9150610f0f565b3461036557602036600319011261036557610f56611ca9565b6001546001600160a01b03919082163303610f8957166bffffffffffffffffffffffff60a01b6007541617600755600080f35b60405162461bcd60e51b815260206004820152601b60248201527f536869706d656e744d616e616765723a20536f6c6f2061646d696e00000000006044820152606490fd5b34610365576000366003190112610365576002546000198101908111610ff957602090604051908152f35b634e487b7160e01b600052601160045260246000fd5b346103655761101d36611a6e565b60005460405163415dc83b60e11b81523360048201529192916001600160a01b03918216919060209060249082818381885afa80156103715760009061131a575b6110689150611d07565b8415158061130f575b61107a90611df7565b846000526003825261109760ff600e604060002001541615611e4e565b846000526003825260ff60086040600020015416600781101561120a5760046110c1911415611e99565b8460005260038252604060002092600884019360ff8554169560078710156112fa578660005260068552604060002060078a10156112e55760ff8a16600052855260ff60406000205416156112865790600084939260405194858092634138d16760e01b82523360048301525afa92831561037157600093611266575b506001015416331490811561124d575b811561121f575b81156111f2575b501561119657505060008051602061218a833981519152916111818561119193611d7a565b6040519182913396429184612001565b0390a3005b9060306084926040519262461bcd60e51b845260048401528201527f536869706d656e744d616e616765723a2053696e207065726d69736f2070617260448201526f612063616d626961722065737461646f60801b6064820152fd5b604091500151600681101561120a576005148761115c565b50634e487b7160e01b60009081526021600452fd5b9050604081015160068110156112385760031490611155565b82634e487b7160e01b60005260216004526000fd5b905060408101516006811015611238576002149061114e565b600191935061127f903d806000833e6106ed8183611bcc565b929061113e565b60405162461bcd60e51b8152600481018690526032818601527f536869706d656e744d616e616765723a205472616e736963696f6e2064652065604482015271737461646f206e6f207065726d697469646160701b6064820152608490fd5b84634e487b7160e01b60005260216004526000fd5b83634e487b7160e01b60005260216004526000fd5b506002548510611071565b508281813d8311611349575b6113308183611bcc565b810103126103655761134461106891611cfa565b61105e565b503d611326565b34610365576020366003190112610365576001600160a01b03611371611ca9565b168060005260046020526113886040600020612026565b90600052600560205261139e6040600020612026565b6113ab8251825190612075565b916113b583612082565b926113c36040519485611bcc565b8084526113d2601f1991612082565b0136602085013760005b815181101561140957806113f36114049284612099565b516113fe8287612099565b52611d6b565b6113dc565b5060005b825181101561143e57806114246114399285612099565b516113fe611433838651612075565b87612099565b61140d565b604051806104898682611cbf565b346103655761147361145d36611c93565b906000526003602052600a604060002001611d92565b005b346103655761147361148636611c93565b9060005260036020526009604060002001611d92565b3461036557602036600319011261036557600435600052600360205260406000208054600160a01b60019003918260018201541692600282015416600382016114e490611bed565b916114f160048201611bed565b926114fe60058301611bed565b936006830154946007840154600885015460ff1691600b86015460ff1693600c87015495600d88015497600e015460ff16986040519c8d9c8d5260208d015260408c01526101a08060608d01528b0161155691611ab0565b8a810360808c015261156791611ab0565b89810360a08b015261157891611ab0565b9660c089015260e0880152610100870161159191611ad5565b151561012086015261014085015261016084015215156101808301520390f35b34610365576115bf36611b43565b60005460405163415dc83b60e11b815233600482015260209493916001600160a01b03919086908290602490829086165afa80156103715760009061174f575b6116099150611d07565b83151580611744575b61161b90611df7565b836000526003855261163860ff600e604060002001541615611e4e565b836000526003855260ff6008604060002001541660078110156102ac576004611662911415611e99565b8360005260038552604060002090806001830154163314908115611736575b50156116de577f477fe2d2a8c123a93cace04882c89dd352a34a0eee4f95b422fe068a956c42549291816001600e600861064995019260ff1993600685825416179055019182541617905560405192604084526040840191611dd6565b60405162461bcd60e51b815260048101869052602a60248201527f536869706d656e744d616e616765723a2053696e207065726d69736f20706172604482015269309031b0b731b2b630b960b11b6064820152608490fd5b905060015416331486611681565b506002548410611612565b508581813d831161177e575b6117658183611bcc565b810103126103655761177961160991611cfa565b6115ff565b503d61175b565b34610365576000366003190112610365576007546040516001600160a01b039091168152602090f35b346103655760203660031901126103655760043560006101c06040516117d381611bb0565b82815282602082015282604082015260608082015260606080820152606060a08201528260c08201528260e082015282610100820152606061012082015260606101408201528261016082015282610180820152826101a0820152015280151580611a4c575b61184290611df7565b600052600360205260406000206040519061185c82611bb0565b8054825260018101546001600160a01b039081166020840152600282015416604083015261188c60038201611bed565b606083015261189d60048201611bed565b60808301526118ae60058201611bed565b60a0830152600681015460c0830152600781015460e083015260ff60088201541660078110156102ac5760ff91600e916101008501526118f060098201612026565b610120850152611902600a8201612026565b61014085015282600b820154161515610160850152600c810154610180850152600d8101546101a085015201541615156101c08201526040518091602082528051602083015260018060a01b03602082015116604083015260018060a01b0360408201511660608301526101c0611a1961198d60608401516101e06080870152610200860190611ab0565b611a026119c36119af608087015193601f1994858a83030160a08b0152611ab0565b60a0870151848983030160c08a0152611ab0565b60c086015160e088015260e08601516101008801526119ec610100870151610120890190611ad5565b6101208601518388830301610140890152611ae2565b906101408501519086830301610160870152611ae2565b9161016081015115156101808501526101808101516101a08501526101a081015182850152015115156101e08301520390f35b506002548110611839565b3461036557611473611a6836611a6e565b906120ad565b6040906003190112610365576004359060243560078110156103655790565b60005b838110611aa05750506000910152565b8181015183820152602001611a90565b90602091611ac981518092818552858086019101611a8d565b601f01601f1916010190565b9060078210156102ac5752565b90815180825260208080930193019160005b828110611b02575050505090565b835185529381019392810192600101611af4565b9181601f84011215610365578235916001600160401b038311610365576020838186019501011161036557565b9060406003198301126103655760043591602435906001600160401b03821161036557611b7291600401611b16565b9091565b90600182811c92168015611ba6575b6020831014611b9057565b634e487b7160e01b600052602260045260246000fd5b91607f1691611b85565b6101e081019081106001600160401b03821117610b5957604052565b90601f801991011681019081106001600160401b03821117610b5957604052565b9060405191826000825492611c0184611b76565b908184526001948581169081600014611c705750600114611c2d575b5050611c2b92500383611bcc565b565b9093915060005260209081600020936000915b818310611c58575050611c2b93508201013880611c1d565b85548884018501529485019487945091830191611c40565b915050611c2b94506020925060ff191682840152151560051b8201013880611c1d565b6040906003190112610365576004359060243590565b600435906001600160a01b038216820361036557565b6020908160408183019282815285518094520193019160005b828110611ce6575050505090565b835185529381019392810192600101611cd8565b5190811515820361036557565b15611d0e57565b60405162461bcd60e51b815260206004820152602f60248201527f536869706d656e744d616e616765723a204163746f72206e6f2072656769737460448201526e7261646f206f20696e61637469766f60881b6064820152608490fd5b6000198114610ff95760010190565b9060078110156102ac5760ff80198354169116179055565b80549068010000000000000000821015610b595760018201808255821015611dc05760005260206000200155565b634e487b7160e01b600052603260045260246000fd5b908060209392818452848401376000828201840152601f01601f1916010190565b15611dfe57565b60405162461bcd60e51b815260206004820152602260248201527f536869706d656e744d616e616765723a20456e76696f20696e6578697374656e604482015261746560f01b6064820152608490fd5b15611e5557565b606460405162461bcd60e51b815260206004820152602060248201527f536869706d656e744d616e616765723a20456e76696f2063616e63656c61646f6044820152fd5b15611ea057565b60405162461bcd60e51b815260206004820152602360248201527f536869706d656e744d616e616765723a20456e76696f20796120656e7472656760448201526261646f60e81b6064820152608490fd5b81601f820112156103655780516001600160401b038111610b595760405192611f24601f8301601f191660200185611bcc565b8184526020828401011161036557611f429160208085019101611a8d565b90565b906020828203126103655781516001600160401b0392838211610365570160c081830312610365576040519260c0840184811082821117610b595760405281516001600160a01b038116810361036557845260208201518181116103655783611faf918401611ef1565b60208501526040820151600681101561036557604085015260608201519081116103655760a092611fe1918301611ef1565b6060840152611ff260808201611cfa565b6080840152015160a082015290565b612022604092959493612018836060810198611ad5565b6020830190611ad5565b0152565b9060405191828154918282526020928383019160005283600020936000905b82821061205b57505050611c2b92500383611bcc565b855484526001958601958895509381019390910190612045565b91908201809211610ff957565b6001600160401b038111610b595760051b60200190565b8051821015611dc05760209160051b010190565b600081815260036020526040812060ff600e82015416801561215b575b61212d5760080160ff8154169160078310156121475782815260066020526040812060078610156121335760ff9160409183881682526020522054161561212d5760008051602061218a833981519152916111818561212893611d7a565b0390a3565b50505050565b634e487b7160e01b82526021600452602482fd5b634e487b7160e01b81526021600452602490fd5b5060ff6008820154166007811015612175576004146120ca565b634e487b7160e01b83526021600452602483fdfe70336911118224555af90ee237f985816a4c1854b56fa210c8ed7c35e6f04ad5a26469706673582212205b560a0b2d582f9f38317c2ae75e628641742b4e61859f5ecb44b6fd1d9c751a64736f6c63430008130033","linkReferences":{}},"methodIdentifiers":{"actorRegistry()":"eae7b935","addCheckpointToShipment(uint256,uint256)":"3ba84683","addIncidentToShipment(uint256,uint256)":"4b960bc9","admin()":"f851a440","cancelShipment(uint256,string)":"2643ce33","checkpointTracker()":"201a3bf7","confirmDelivery(uint256)":"fd84cb97","createShipment(address,string,string,string,bool,int256,int256)":"9ab21a1b","getActorShipments(address)":"72f2f93a","getRecipientShipments(address)":"a61121fa","getSenderShipments(address)":"aab29d77","getShipment(uint256)":"092b3740","getShipmentStatus(uint256)":"ee21259d","getTotalShipments()":"885301b2","initiateReturn(uint256,string)":"9d9ee239","nextShipmentId()":"b9a3a68c","setCheckpointTracker(address)":"8b92f9d1","shipments(uint256)":"2ac08a93","updateShipmentStatus(uint256,uint8)":"7defa920","updateStatusFromCheckpoint(uint256,uint8)":"05c1e776"},"id":23}