{"abi":[{"type":"constructor","inputs":[{"name":"_actorRegistry","type":"address","internalType":"address"},{"name":"_shipmentManager","type":"address","internalType":"address"}],"stateMutability":"nonpayable"},{"type":"function","name":"actorRegistry","inputs":[],"outputs":[{"name":"","type":"address","internalType":"contract ActorRegistry"}],"stateMutability":"view"},{"type":"function","name":"admin","inputs":[],"outputs":[{"name":"","type":"address","internalType":"address"}],"stateMutability":"view"},{"type":"function","name":"checkTemperatureCompliance","inputs":[{"name":"_shipmentId","type":"uint256","internalType":"uint256"}],"outputs":[{"name":"compliant","type":"bool","internalType":"bool"},{"name":"totalChecked","type":"uint256","internalType":"uint256"},{"name":"violationsCount","type":"uint256","internalType":"uint256"}],"stateMutability":"view"},{"type":"function","name":"checkpoints","inputs":[{"name":"","type":"uint256","internalType":"uint256"}],"outputs":[{"name":"id","type":"uint256","internalType":"uint256"},{"name":"shipmentId","type":"uint256","internalType":"uint256"},{"name":"actor","type":"address","internalType":"address"},{"name":"location","type":"string","internalType":"string"},{"name":"checkpointType","type":"string","internalType":"string"},{"name":"timestamp","type":"uint256","internalType":"uint256"},{"name":"notes","type":"string","internalType":"string"},{"name":"temperature","type":"int256","internalType":"int256"},{"name":"tempViolation","type":"bool","internalType":"bool"},{"name":"dataHash","type":"bytes32","internalType":"bytes32"}],"stateMutability":"view"},{"type":"function","name":"getActorCheckpoints","inputs":[{"name":"_actor","type":"address","internalType":"address"}],"outputs":[{"name":"","type":"uint256[]","internalType":"uint256[]"}],"stateMutability":"view"},{"type":"function","name":"getCheckpoint","inputs":[{"name":"_checkpointId","type":"uint256","internalType":"uint256"}],"outputs":[{"name":"","type":"tuple","internalType":"struct CheckpointTracker.Checkpoint","components":[{"name":"id","type":"uint256","internalType":"uint256"},{"name":"shipmentId","type":"uint256","internalType":"uint256"},{"name":"actor","type":"address","internalType":"address"},{"name":"location","type":"string","internalType":"string"},{"name":"checkpointType","type":"string","internalType":"string"},{"name":"timestamp","type":"uint256","internalType":"uint256"},{"name":"notes","type":"string","internalType":"string"},{"name":"temperature","type":"int256","internalType":"int256"},{"name":"tempViolation","type":"bool","internalType":"bool"},{"name":"dataHash","type":"bytes32","internalType":"bytes32"}]}],"stateMutability":"view"},{"type":"function","name":"getLatestCheckpoint","inputs":[{"name":"_shipmentId","type":"uint256","internalType":"uint256"}],"outputs":[{"name":"","type":"tuple","internalType":"struct CheckpointTracker.Checkpoint","components":[{"name":"id","type":"uint256","internalType":"uint256"},{"name":"shipmentId","type":"uint256","internalType":"uint256"},{"name":"actor","type":"address","internalType":"address"},{"name":"location","type":"string","internalType":"string"},{"name":"checkpointType","type":"string","internalType":"string"},{"name":"timestamp","type":"uint256","internalType":"uint256"},{"name":"notes","type":"string","internalType":"string"},{"name":"temperature","type":"int256","internalType":"int256"},{"name":"tempViolation","type":"bool","internalType":"bool"},{"name":"dataHash","type":"bytes32","internalType":"bytes32"}]}],"stateMutability":"view"},{"type":"function","name":"getShipmentCheckpointCount","inputs":[{"name":"_shipmentId","type":"uint256","internalType":"uint256"}],"outputs":[{"name":"","type":"uint256","internalType":"uint256"}],"stateMutability":"view"},{"type":"function","name":"getShipmentCheckpoints","inputs":[{"name":"_shipmentId","type":"uint256","internalType":"uint256"}],"outputs":[{"name":"result","type":"tuple[]","internalType":"struct CheckpointTracker.Checkpoint[]","components":[{"name":"id","type":"uint256","internalType":"uint256"},{"name":"shipmentId","type":"uint256","internalType":"uint256"},{"name":"actor","type":"address","internalType":"address"},{"name":"location","type":"string","internalType":"string"},{"name":"checkpointType","type":"string","internalType":"string"},{"name":"timestamp","type":"uint256","internalType":"uint256"},{"name":"notes","type":"string","internalType":"string"},{"name":"temperature","type":"int256","internalType":"int256"},{"name":"tempViolation","type":"bool","internalType":"bool"},{"name":"dataHash","type":"bytes32","internalType":"bytes32"}]}],"stateMutability":"view"},{"type":"function","name":"nextCheckpointId","inputs":[],"outputs":[{"name":"","type":"uint256","internalType":"uint256"}],"stateMutability":"view"},{"type":"function","name":"recordBatchCheckpoints","inputs":[{"name":"_shipmentIds","type":"uint256[]","internalType":"uint256[]"},{"name":"_locations","type":"string[]","internalType":"string[]"},{"name":"_types","type":"string[]","internalType":"string[]"},{"name":"_notes","type":"string[]","internalType":"string[]"},{"name":"_temperatures","type":"int256[]","internalType":"int256[]"}],"outputs":[{"name":"ids","type":"uint256[]","internalType":"uint256[]"}],"stateMutability":"nonpayable"},{"type":"function","name":"recordCheckpoint","inputs":[{"name":"_shipmentId","type":"uint256","internalType":"uint256"},{"name":"_location","type":"string","internalType":"string"},{"name":"_checkpointType","type":"string","internalType":"string"},{"name":"_notes","type":"string","internalType":"string"},{"name":"_temperature","type":"int256","internalType":"int256"}],"outputs":[{"name":"","type":"uint256","internalType":"uint256"}],"stateMutability":"nonpayable"},{"type":"function","name":"shipmentManager","inputs":[],"outputs":[{"name":"","type":"address","internalType":"contract ShipmentManager"}],"stateMutability":"view"},{"type":"function","name":"verifyCheckpointIntegrity","inputs":[{"name":"_checkpointId","type":"uint256","internalType":"uint256"}],"outputs":[{"name":"valid","type":"bool","internalType":"bool"},{"name":"expectedHash","type":"bytes32","internalType":"bytes32"},{"name":"storedHash","type":"bytes32","internalType":"bytes32"}],"stateMutability":"view"},{"type":"function","name":"verifyTemperatureCompliance","inputs":[{"name":"_shipmentId","type":"uint256","internalType":"uint256"}],"outputs":[{"name":"compliant","type":"bool","internalType":"bool"},{"name":"totalChecked","type":"uint256","internalType":"uint256"},{"name":"violationsCount","type":"uint256","internalType":"uint256"}],"stateMutability":"nonpayable"},{"type":"event","name":"CheckpointRecorded","inputs":[{"name":"checkpointId","type":"uint256","indexed":true,"internalType":"uint256"},{"name":"shipmentId","type":"uint256","indexed":true,"internalType":"uint256"},{"name":"location","type":"string","indexed":false,"internalType":"string"},{"name":"checkpointType","type":"string","indexed":false,"internalType":"string"},{"name":"actor","type":"address","indexed":true,"internalType":"address"},{"name":"temperature","type":"int256","indexed":false,"internalType":"int256"},{"name":"tempViolation","type":"bool","indexed":false,"internalType":"bool"},{"name":"dataHash","type":"bytes32","indexed":false,"internalType":"bytes32"},{"name":"timestamp","type":"uint256","indexed":false,"internalType":"uint256"}],"anonymous":false},{"type":"event","name":"ColdChainComplianceVerified","inputs":[{"name":"shipmentId","type":"uint256","indexed":true,"internalType":"uint256"},{"name":"compliant","type":"bool","indexed":false,"internalType":"bool"},{"name":"checkpointsChecked","type":"uint256","indexed":false,"internalType":"uint256"},{"name":"violationsFound","type":"uint256","indexed":false,"internalType":"uint256"},{"name":"timestamp","type":"uint256","indexed":false,"internalType":"uint256"}],"anonymous":false},{"type":"event","name":"TemperatureViolation","inputs":[{"name":"checkpointId","type":"uint256","indexed":true,"internalType":"uint256"},{"name":"shipmentId","type":"uint256","indexed":true,"internalType":"uint256"},{"name":"recordedTemp","type":"int256","indexed":false,"internalType":"int256"},{"name":"minAllowed","type":"int256","indexed":false,"internalType":"int256"},{"name":"maxAllowed","type":"int256","indexed":false,"internalType":"int256"},{"name":"actor","type":"address","indexed":true,"internalType":"address"},{"name":"timestamp","type":"uint256","indexed":false,"internalType":"uint256"}],"anonymous":false}],"bytecode":{"object":"0x608034620002195762002bb690601f38839003908101601f19168201906001600160401b038211838310176200021e578083916040958694855283398101031262000219576200005d6020620000558362000234565b920162000234565b6001908160035560018060a01b0319903382600254161760025560018060a01b039081600095168386541617855516908254161781557f57f6feba81f75bba16724fd2df8cf20a862bebc8d84c7248e84fb01834bce74f82526007602052828083209260ff199383858254161790557fbf94be0534a75a6dbdaf7b131135755229cb35f3c19e1d92a7bddbef1f8ff509815281812083858254161790557f8f347ba2dd7ac2e01bf7bf1de674b5b14119804f57767c33e0349563085d3fd8815281812083858254161790557f504be0adfc55e37c918d71b6ac04a58ed15dad35c2a6a0c173766d1b7f9e614f815281812083858254161790557f33ffbdff3a4282df4353f3593b78d26aaf4c28b5786164f828858505bc5e301c815281812083858254161790557f626f301c1217b75b8bd6558a3ab99fdf16177a818790c6aae8e70f9f7b30522a815281812083858254161790557f3888b5d33c890e5b6df3eaebb82c5b6934413fbdad5cf10cf40011dd8781ba09815281812083858254161790557f58215dc1056bcdb3b99406d5bf551c900f17d73caefcc56a85ed83b3132004b1815220918254161790555161296c90816200024a8239f35b600080fd5b634e487b7160e01b600052604160045260246000fd5b51906001600160a01b0382168203620002195756fe60a080604052600436101561001357600080fd5b600090813560e01c9081630a832d8f14611caa5750806320fc488114611bff578063229ec45214611be1578063242f85d814611b5e57806333401ee114610ba95780635f19f4f51461093a57806378ba358c146109115780638139a205146107335780638e6618511461068b578063af56a428146105b8578063b89648121461058e578063b8a24252146104b2578063e4e82ce914610118578063eae7b935146100f15763f851a440146100c657600080fd5b346100ee57806003193601126100ee576002546040516001600160a01b039091168152602090f35b80fd5b50346100ee57806003193601126100ee57546040516001600160a01b039091168152602090f35b50346100ee5760a03660031901126100ee576001600160401b036004358181116104ae5761014a903690600401612088565b916024358181116104aa57610163903690600401612088565b916044358181116104a65761017c903690600401612088565b93906080526064358281116104a257610199903690600401612088565b92608435116104a2576101b136608435600401612088565b895460405163415dc83b60e11b8152336004820152929491939290602090829060249082906001600160a01b03165afa8015610497578b90610458575b6101f891506120c5565b8089148061044f575b80610446575b8061043d575b156103e0576014891161038457610223896121f7565b986102316040519a8b611fc1565b808a52601f19610240826121f7565b013660208c01378a5b818110610262576040518061025e8d82611eda565b0390f35b80896020828f948b8f8c8f936102f58d8f92808f8f926102a661029b826102ae94610294826102b6996103079f6124af565b359e6124bf565b9d909f6080516124bf565b9a90956124bf565b9590966124af565b35956102e36040519b8c9a8b9a6333401ee160e01b8c5260048c015260a060248c015260a48b019161248e565b8881036003190160448a01529161248e565b8581036003190160648701529161248e565b906084830152038186305af1908115610379578d939161033b575b506103308261033694612500565b52612401565b610249565b9250506020823d602011610371575b8161035760209383611fc1565b8101031261036c5790518b9190610330610322565b600080fd5b3d915061034a565b6040513d85823e3d90fd5b60405162461bcd60e51b815260206004820152602e60248201527f436865636b706f696e74547261636b65723a204d617820323020636865636b7060448201526d6f696e747320706f72206c6f746560901b6064820152608490fd5b60405162461bcd60e51b815260206004820152602f60248201527f436865636b706f696e74547261636b65723a204172726179732064652064696660448201526e195c995b9d19481b1bdb99da5d1d59608a1b6064820152608490fd5b5082851461020d565b50848714610207565b50868114610201565b506020813d60201161048f575b8161047260209383611fc1565b8101031261048b576104866101f8916120b8565b6101ee565b8a80fd5b3d9150610465565b6040513d8d823e3d90fd5b8780fd5b8680fd5b8480fd5b8280fd5b50346100ee5760203660031901126100ee57600480358252602052604090208054600182015460028301549092906001600160a01b03166104f560038301611fe2565b9161057661050560048301611fe2565b60058301549061056361051a60068601611fe2565b91610555600787015498600960ff60088a015416980154986040519c8d9c8d5260208d015260408c01526101408060608d01528b0190611e22565b9089820360808b0152611e22565b9160a088015286820360c0880152611e22565b9260e085015215156101008401526101208301520390f35b50346100ee5760203660031901126100ee5760406020916004358152600583522054604051908152f35b50346100ee5760203660031901126100ee5760043590811515908161060c575b61025e6105ed846105e88561212b565b612514565b6040805193151584526020840192909252908201529081906060820190565b600154604051632e68e9a360e21b8152919250602090829060049082906001600160a01b03165afa91821561067f579161064c575b50811061025e6105d8565b90506020813d8211610677575b8161066660209383611fc1565b8101031261036c575161025e610641565b3d9150610659565b604051903d90823e3d90fd5b50346100ee5760203660031901126100ee576004359081151590816106c0575b61025e6105ed846106bb8561212b565b6126ba565b600154604051632e68e9a360e21b8152919250602090829060049082906001600160a01b03165afa91821561067f5791610700575b50811061025e6106ab565b90506020813d821161072b575b8161071a60209383611fc1565b8101031261036c575161025e6106f5565b3d915061070d565b50346100ee57602090816003193601126100ee576004356107526127ea565b50801515806108a6575b6107659061212b565b815260058252604081208054908115610856576000198201918211610842576040929161079191612426565b90549060031b1c81526004835220906009604051926107af84611f7c565b8054845260018101548385015260028101546001600160a01b031660408501526107db60038201611fe2565b60608501526107ec60048201611fe2565b6080850152600581015460a085015261080760068201611fe2565b60c0850152600781015460e085015260ff6008820154161515610100850152015461012083015261025e604051928284938452830190611e47565b634e487b7160e01b83526011600452602483fd5b60405162461bcd60e51b815260048101859052602260248201527f436865636b706f696e74547261636b65723a2053696e20636865636b706f696e604482015261747360f01b6064820152608490fd5b50600154604051632e68e9a360e21b8152908490829060049082906001600160a01b03165afa80156103795783906108e2575b8210905061075c565b508381813d831161090a575b6108f88183611fc1565b8101031261036c5761076590516108d9565b503d6108ee565b50346100ee57806003193601126100ee576001546040516001600160a01b039091168152602090f35b50346100ee57602080600319360112610ba55760043580151580610b2f575b6109629061212b565b82526005918282526040812091604051808483829654938481520190855283852092855b85828210610b195750505061099d92500384611fc1565b8251916109a9836121f7565b926109b76040519485611fc1565b8084526109c6601f19916121f7565b0182825b828110610b0357505050805b8451811015610aa557806109ed610aa09287612500565b5183526004845260408320600960405191610a0783611f7c565b8054835260018101548784015260028101546001600160a01b03166040840152610a3360038201611fe2565b6060840152610a4460048201611fe2565b60808401528981015460a0840152610a5e60068201611fe2565b60c0840152600781015460e084015260ff60088201541615156101008401520154610120820152610a8f8287612500565b52610a9a8186612500565b50612401565b6109d6565b509092506040519280840190808552835180925280604083818801981b870101940192955b828710610ad75785850386f35b909192938280610af3600193603f198a82030186528851611e47565b9601920196019592919092610aca565b610b0b6127ea565b8282880101520183906109ca565b8554845260019586019589955093019201610986565b50600154604051632e68e9a360e21b8152908390829060049082906001600160a01b03165afa8015610b9a578490610b6b575b82109050610959565b508281813d8311610b93575b610b818183611fc1565b8101031261036c576109629051610b62565b503d610b77565b6040513d86823e3d90fd5b5080fd5b50346100ee5760a03660031901126100ee576024356001600160401b038111610ba557610bda903690600401611f15565b6044356001600160401b0381116118f057610bf9903690600401611f15565b6064949194356001600160401b0381116104ae57610c1b903690600401611f15565b91909460018060a01b038454169360405163415dc83b60e11b8152336004820152602081602481895afa8015611169578290611b23575b610c5c91506120c5565b600435151580611ab0575b610c709061212b565b6001546040516224acdd60e61b815260048035908201526001600160a01b03909116959082816024818a5afa908115610379578391611a96575b506101c0810151611a465761010001516007811015611589576004146119f357861561199f57831561195057610ce136858b6123ca565b602081519101208252600760205260ff604083205416156118f4578160249160405192838092634138d16760e01b82523360048301525afa9081156111695782916117ef575b506040516224acdd60e61b8152600480359082015282816024818a5afa9081156103795783916117d5575b50610d5e36868c6123ca565b602081519101207f57f6feba81f75bba16724fd2df8cf20a862bebc8d84c7248e84fb01834bce74f811460001461159d5750506040018051600681101561158957600214908115611560575b50156114f5575b6040516224acdd60e61b81526004803590820152948186602481845afa9586156111695782966114d1575b50819561016081015161144a575b50610df5848a612838565b9190916113e1575b505060405160043560208201523360601b604082015286836054830137610e5860b482868c818c8401916054830189815237426054838301015260843560748383010152436094838301015201036094810184520182611fc1565b6020815191012093610ebe60035498610e708a612401565b60035560405192610e8084611f7c565b8a84526004356020850152336040850152610e9c368b886123ca565b6060850152610eac36888e6123ca565b60808501524260a085015236916123ca565b60c082015260843560e0820152851515610100820152846101208201528782526004602052604082209080518255602081015160018301556002820160018060a01b036040830151166bffffffffffffffffffffffff60a01b82541617905560608101518051906001600160401b038211611237578190610f426003860154611f42565b601f8111611390575b50602090601f8311600114611321578692611316575b50508160011b916000199060031b1c19161760038301555b60808101518051906001600160401b038211611237578190610f9e6004860154611f42565b601f81116112c5575b50602090601f831160011461125657869261124b575b50508160011b916000199060031b1c19161760048301555b60a0810151600583015560c08101518051906001600160401b038211611237576110026006850154611f42565b601f81116111f2575b50602090601f831160011461117f57918060099492610120948892611174575b50508160011b916000199060031b1c19161760068501555b60e0810151600785015560088401610100820151151560ff801983541691161790550151910155600435815260056020526110818760408320612454565b33815260066020526110968760408320612454565b6001546001600160a01b0316803b15610ba557818091604460405180948193633ba8468360e01b835260043560048401528d60248401525af1801561116957611155575b505095611106916110f96020986040519760c0895260c089019161248e565b918683038988015261248e565b9160843560408501521515606084015260808301524260a0830152827f47ec7f4400cdebdc8b5435925176704c06dd92fa417283844000588c991cf4d3339380600435940390a4604051908152f35b61115f8291611fae565b6100ee57806110da565b6040513d84823e3d90fd5b01519050388061102b565b906006850186526020862091865b601f19851681106111da575092600994926001926101209583601f198116106111c1575b505050811b016006850155611043565b015160001960f88460031b161c191690553880806111b1565b9192602060018192868501518155019401920161118d565b60068501865260208620601f840160051c810160208510611230575b601f830160051c8201811061122457505061100b565b6000815560010161120e565b508061120e565b634e487b7160e01b85526041600452602485fd5b015190503880610fbd565b9250600485018652602086209086935b601f19841685106112aa576001945083601f19811610611291575b505050811b016004830155610fd5565b015160001960f88460031b161c19169055388080611281565b81810151835560209485019460019093019290910190611266565b90915060048501865260208620601f840160051c81016020851061130f575b90849392915b601f830160051c82018110611300575050610fa7565b600081558594506001016112ea565b50806112e4565b015190503880610f61565b9250600385018652602086209086935b601f1984168510611375576001945083601f1981161061135c575b505050811b016003830155610f79565b015160001960f88460031b161c1916905538808061134c565b81810151835560209485019460019093019290910190611331565b90915060038501865260208620601f840160051c8101602085106113da575b90849392915b601f830160051c820181106113cb575050610f4b565b600081558594506001016113b5565b50806113af565b803b156104ae576040516302e0f3bb60e11b8152600480359082015291600781101561143657604483858094829460248401525af1801561116957611427575b80610dfd565b61143090611fae565b38611421565b634e487b7160e01b84526021600452602484fd5b61018081015190816084351280156114c1575b611468575b50610dea565b9096506001966101a06003549201516040519160843583526020830152604082015242606082015233917f8a1bf50f4acc7a26bb116f0c198737ac9864214c84190258dedb3df34a301003608060043593a43880611462565b506101a08101516084351361145d565b6114ee9196503d8084833e6114e68183611fc1565b81019061226c565b9438610ddc565b60405162461bcd60e51b815260206004820152603d60248201527f436865636b706f696e74547261636b65723a20536f6c6f20436172726965722f60448201527f53656e64657220707565646520726567697374726172205069636b75700000006064820152608490fd5b90505160068110156115755760011438610daa565b634e487b7160e01b82526021600452602482fd5b634e487b7160e01b83526021600452602483fd5b7fbf94be0534a75a6dbdaf7b131135755229cb35f3c19e1d92a7bddbef1f8ff509810361164b575050604001516006811015611575576003036115e0575b610db1565b60405162461bcd60e51b815260206004820152603760248201527f436865636b706f696e74547261636b65723a20536f6c6f20487562207075656460448201527f6520726567697374726172207061736f20656e206875620000000000000000006064820152608490fd5b7f33ffbdff3a4282df4353f3593b78d26aaf4c28b5786164f828858505bc5e301c0361171a57604001516001600160a01b03163314908115611702575b50610db15760405162461bcd60e51b815260206004820152604160248201527f436865636b706f696e74547261636b65723a20536f6c6f20526563697069656e60448201527f742f4361727269657220707565646520636f6e6669726d617220656e747265676064820152606160f81b608482015260a490fd5b60409150015160068110156115755760021438611688565b5060400180516006811015611589576002149081156117bf575b81156117aa575b506115db57608460405162461bcd60e51b815260206004820152604060248201527f436865636b706f696e74547261636b65723a20526f6c20696e7375666963696560448201527f6e746520706172612065737465207469706f20646520636865636b706f696e746064820152fd5b9050516006811015611575576005143861173b565b8091505160068110156115895760031490611734565b6117e991503d8085833e6114e68183611fc1565b38610d52565b3d91508183823e6118008282611fc1565b60208183810103126104ae578051906001600160401b0382116118f05760c082820184830103126118f057604051928360c08101106001600160401b0360c0860111176112375760c08401604052611859838301612183565b8452602083830101516001600160401b0381116118ec576118819082840190858501016121b2565b60208501526040838301015160068110156118ec57604085015260608383010151906001600160401b0382116118ec5782916118c69160a095940190848401016121b2565b60608501526118d96080838301016120b8565b608085015201015160a082015238610d27565b8580fd5b8380fd5b60405162461bcd60e51b815260206004820152602e60248201527f436865636b706f696e74547261636b65723a205469706f20646520636865636b60448201526d706f696e7420696e76616c69646f60901b6064820152608490fd5b60405162461bcd60e51b815260206004820152602160248201527f436865636b706f696e74547261636b65723a205469706f2072657175657269646044820152606f60f81b6064820152608490fd5b60405162461bcd60e51b815260206004820152602660248201527f436865636b706f696e74547261636b65723a20556269636163696f6e2072657160448201526575657269646160d01b6064820152608490fd5b60405162461bcd60e51b815260206004820152602560248201527f436865636b706f696e74547261636b65723a20456e76696f20796120656e7472604482015264656761646f60d81b6064820152608490fd5b60405162461bcd60e51b815260206004820152602260248201527f436865636b706f696e74547261636b65723a20456e76696f2063616e63656c61604482015261646f60f01b6064820152608490fd5b611aaa91503d8085833e6114e68183611fc1565b38610caa565b50600154604051632e68e9a360e21b815290602090829060049082906001600160a01b03165afa8015611169578290611aef575b600435109050610c67565b506020813d602011611b1b575b81611b0960209383611fc1565b81010312610ba557610c709051611ae4565b3d9150611afc565b506020813d602011611b56575b81611b3d60209383611fc1565b81010312610ba557611b51610c5c916120b8565b610c52565b3d9150611b30565b50346100ee57602080600319360112610ba5576004356001600160a01b038116908190036104ae5782526006815260408220916040518092808554928381520194835280832092905b828210611bca5761025e85611bbe81890382611fc1565b60405191829182611eda565b835486529485019460019384019390910190611ba7565b50346100ee57806003193601126100ee576020600354604051908152f35b50346100ee57602090816003193601126100ee57600435611c1e6127ea565b5080151580611c9f575b15611c48579060409181526004835220906009604051926107af84611f7c565b60405162461bcd60e51b815260048101849052602960248201527f436865636b706f696e74547261636b65723a20436865636b706f696e7420696e6044820152686578697374656e746560b81b6064820152608490fd5b506003548110611c28565b905034610ba557602090816003193601126104ae57600480358452825260408320606093611cd783611f7c565b81548352611de760b460018401549286860193845260018060a01b036002860154169460408701958652611d0d60038201611fe2565b9189880192835260e0611d2260048401611fe2565b9660808a01978852610120600960058601549560a08d019687528c60c0611d4b60068401611fe2565b9101528c600782015495869101528c61010060ff600884015416151591015201549a01998a52519751935196519251926040519788958c87019a8b526bffffffffffffffffffffffff19908e1b166040870152611db28c825192839160548a019101611dff565b8501611dc88c8351938491605485019101611dff565b0192605484015260748301526094820152036094810184520182611fc1565b51902090519060405192600184528301526040820152f35b60005b838110611e125750506000910152565b8181015183820152602001611e02565b90602091611e3b81518092818552858086019101611dff565b601f01601f1916010190565b90815181526020820151602082015260018060a01b036040830151166040820152611eb5611e99611e876060850151610140806060870152850190611e22565b60808501518482036080860152611e22565b60a084015160a084015260c084015183820360c0850152611e22565b9160e081015160e0830152610100808201511515908301526101208091015191015290565b6020908160408183019282815285518094520193019160005b828110611f01575050505090565b835185529381019392810192600101611ef3565b9181601f8401121561036c578235916001600160401b03831161036c576020838186019501011161036c57565b90600182811c92168015611f72575b6020831014611f5c57565b634e487b7160e01b600052602260045260246000fd5b91607f1691611f51565b61014081019081106001600160401b03821117611f9857604052565b634e487b7160e01b600052604160045260246000fd5b6001600160401b038111611f9857604052565b90601f801991011681019081106001600160401b03821117611f9857604052565b9060405191826000825492611ff684611f42565b9081845260019485811690816000146120655750600114612022575b505061202092500383611fc1565b565b9093915060005260209081600020936000915b81831061204d57505061202093508201013880612012565b85548884018501529485019487945091830191612035565b91505061202094506020925060ff191682840152151560051b8201013880612012565b9181601f8401121561036c578235916001600160401b03831161036c576020808501948460051b01011161036c57565b5190811515820361036c57565b156120cc57565b60405162461bcd60e51b815260206004820152603160248201527f436865636b706f696e74547261636b65723a204163746f72206e6f207265676960448201527073747261646f206f20696e61637469766f60781b6064820152608490fd5b1561213257565b60405162461bcd60e51b8152602060048201526024808201527f436865636b706f696e74547261636b65723a20456e76696f20696e6578697374604482015263656e746560e01b6064820152608490fd5b51906001600160a01b038216820361036c57565b6001600160401b038111611f9857601f01601f191660200190565b81601f8201121561036c5780516121c881612197565b926121d66040519485611fc1565b8184526020828401011161036c576121f49160208085019101611dff565b90565b6001600160401b038111611f985760051b60200190565b81601f8201121561036c57805191612225836121f7565b926122336040519485611fc1565b808452602092838086019260051b82010192831161036c578301905b82821061225d575050505090565b8151815290830190830161224f565b9060208282031261036c5781516001600160401b039283821161036c5701906101e092838383031261036c5760405193840184811082821117611f9857604052825184526122bc60208401612183565b60208501526122cd60408401612183565b6040850152606083015181811161036c57826122ea9185016121b2565b6060850152608083015181811161036c57826123079185016121b2565b608085015260a083015181811161036c57826123249185016121b2565b60a085015260c083015160c085015260e083015160e08501526101008084015190600782101561036c578501526101208084015182811161036c578361236b91860161220e565b90850152610140918284015191821161036c5761238991840161220e565b9083015261016061239b8183016120b8565b9083015261018080820151908301526101a080820151908301526123c36101c08092016120b8565b9082015290565b9291926123d682612197565b916123e46040519384611fc1565b82948184528183011161036c578281602093846000960137010152565b60001981146124105760010190565b634e487b7160e01b600052601160045260246000fd5b805482101561243e5760005260206000200190600090565b634e487b7160e01b600052603260045260246000fd5b805468010000000000000000811015611f985761247691600182018155612426565b819291549060031b91821b91600019901b1916179055565b908060209392818452848401376000828201840152601f01601f1916010190565b919081101561243e5760051b0190565b919081101561243e5760051b81013590601e198136030182121561036c5701908135916001600160401b03831161036c57602001823603811361036c579190565b805182101561243e5760209160051b010190565b906000809160019360018060a01b038554169360409586516224acdd60e61b8152828160248160049a888c8301525afa9081156126b05790610160918491612696575b500151156126505782825260209160058352878120968851808986829b54938481520190855286852092855b878983831061263b575050505061259c92500389611fc1565b87519782845b6125ea575b505050505060807fc144cf8296941e13c7a665def0d2838edf870da65174a190a0f8b4758ca9a1369185801598888151938b8552840152820152426060820152a2565b8151811015612636576125fd8183612500565b51845282865260ff60088c8620015416612621575b61261b90612401565b846125a2565b9761262e61261b91612401565b989050612612565b6125a7565b86548552958101958e95509093019201612583565b935093509093608081857fc144cf8296941e13c7a665def0d2838edf870da65174a190a0f8b4758ca9a136935191868352816020840152820152426060820152a2918190565b6126aa91503d8086833e6114e68183611fc1565b38612557565b88513d85823e3d90fd5b600080916001808060a01b038154169360409283516224acdd60e61b8152828160248160049a868c8301525afa9081156127e057906101609184916127c6575b500151156127bb57815260209460058652838220958451808883829a54938481520190865283862092865b88868383106127a6575050505061273e92500388611fc1565b86519683855b612755575b50505050505050801592565b81518110156127a1576127688183612500565b51855283835260ff600888872001541661278c575b61278690612401565b85612744565b9661279961278691612401565b97905061277d565b612749565b86548552958101958d95509093019201612725565b509350915050918190565b6127da91503d8086833e6114e68183611fc1565b386126fa565b85513d85823e3d90fd5b604051906127f782611f7c565b81610120600091828152826020820152826040820152606080820152606060808201528260a0820152606060c08201528260e0820152826101008201520152565b6128439136916123ca565b602081519101207f57f6feba81f75bba16724fd2df8cf20a862bebc8d84c7248e84fb01834bce74f8114612925577fbf94be0534a75a6dbdaf7b131135755229cb35f3c19e1d92a7bddbef1f8ff509811461292d577f8f347ba2dd7ac2e01bf7bf1de674b5b14119804f57767c33e0349563085d3fd88114612925577f504be0adfc55e37c918d71b6ac04a58ed15dad35c2a6a0c173766d1b7f9e614f811461291c577f33ffbdff3a4282df4353f3593b78d26aaf4c28b5786164f828858505bc5e301c1461291457600090600090565b600490600190565b50600390600190565b506001908190565b5060029060019056fea2646970667358221220c6b217c4812069f55218f19b3bf16e87934806ddc7d5910597989156fc11e64e64736f6c63430008130033","linkReferences":{}},"methodIdentifiers":{"actorRegistry()":"eae7b935","admin()":"f851a440","checkTemperatureCompliance(uint256)":"8e661851","checkpoints(uint256)":"b8a24252","getActorCheckpoints(address)":"242f85d8","getCheckpoint(uint256)":"20fc4881","getLatestCheckpoint(uint256)":"8139a205","getShipmentCheckpointCount(uint256)":"b8964812","getShipmentCheckpoints(uint256)":"5f19f4f5","nextCheckpointId()":"229ec452","recordBatchCheckpoints(uint256[],string[],string[],string[],int256[])":"e4e82ce9","recordCheckpoint(uint256,string,string,string,int256)":"33401ee1","shipmentManager()":"78ba358c","verifyCheckpointIntegrity(uint256)":"0a832d8f","verifyTemperatureCompliance(uint256)":"af56a428"},"id":17}